{"abi":[{"type":"constructor","inputs":[],"stateMutability":"nonpayable"},{"type":"function","name":"SUCCESSFUL_VALIDATION_BONUS","inputs":[],"outputs":[{"name":"","type":"uint256","internalType":"uint256"}],"stateMutability":"view"},{"type":"function","name":"VALIDATION_BASE_REWARD","inputs":[],"outputs":[{"name":"","type":"uint256","internalType":"uint256"}],"stateMutability":"view"},{"type":"function","name":"activeUsers","inputs":[{"name":"","type":"uint256","internalType":"uint256"}],"outputs":[{"name":"","type":"address","internalType":"address"}],"stateMutability":"view"},{"type":"function","name":"awardCommunityReward","inputs":[{"name":"user","type":"address","internalType":"address"},{"name":"amount","type":"uint256","internalType":"uint256"},{"name":"reason","type":"string","internalType":"string"}],"outputs":[],"stateMutability":"nonpayable"},{"type":"function","name":"claimRewards","inputs":[],"outputs":[],"stateMutability":"nonpayable"},{"type":"function","name":"getCommunityStats","inputs":[],"outputs":[{"name":"totalUsers","type":"uint256","internalType":"uint256"},{"name":"totalInteractionsCount","type":"uint256","internalType":"uint256"},{"name":"averageTrustScore","type":"uint256","internalType":"uint256"}],"stateMutability":"view"},{"type":"function","name":"getRewardInfo","inputs":[{"name":"user","type":"address","internalType":"address"}],"outputs":[{"name":"rewardBalance","type":"uint256","internalType":"uint256"},{"name":"totalEarned","type":"uint256","internalType":"uint256"},{"name":"pendingReward","type":"uint256","internalType":"uint256"},{"name":"validationCount","type":"uint256","internalType":"uint256"},{"name":"successfulValidations","type":"uint256","internalType":"uint256"},{"name":"tierName","type":"string","internalType":"string"}],"stateMutability":"view"},{"type":"function","name":"getTopUsersNyTrustScore","inputs":[{"name":"limit","type":"uint256","internalType":"uint256"}],"outputs":[{"name":"topUsers","type":"address[]","internalType":"address[]"},{"name":"scores","type":"uint256[]","internalType":"uint256[]"}],"stateMutability":"view"},{"type":"function","name":"getTotalRewardsDistributed","inputs":[],"outputs":[{"name":"","type":"uint256","internalType":"uint256"}],"stateMutability":"view"},{"type":"function","name":"getTrustScoreForValidation","inputs":[{"name":"user","type":"address","internalType":"address"}],"outputs":[{"name":"","type":"uint256","internalType":"uint256"}],"stateMutability":"view"},{"type":"function","name":"getUserInteractionHistory","inputs":[{"name":"user","type":"address","internalType":"address"}],"outputs":[{"name":"","type":"tuple[]","internalType":"struct CommunityInteractionRating.InteractionRecord[]","components":[{"name":"user","type":"address","internalType":"address"},{"name":"interactionType","type":"string","internalType":"string"},{"name":"timestamp","type":"uint256","internalType":"uint256"},{"name":"value","type":"uint256","internalType":"uint256"},{"name":"metadata","type":"string","internalType":"string"}]}],"stateMutability":"view"},{"type":"function","name":"getUserProfile","inputs":[{"name":"user","type":"address","internalType":"address"}],"outputs":[{"name":"","type":"tuple","internalType":"struct CommunityInteractionRating.UserProfile","components":[{"name":"username","type":"string","internalType":"string"},{"name":"likes","type":"uint256","internalType":"uint256"},{"name":"comments","type":"uint256","internalType":"uint256"},{"name":"posts","type":"uint256","internalType":"uint256"},{"name":"helpfulResponses","type":"uint256","internalType":"uint256"},{"name":"reportsReceived","type":"uint256","internalType":"uint256"},{"name":"reportsMade","type":"uint256","internalType":"uint256"},{"name":"trustScore","type":"uint256","internalType":"uint256"},{"name":"lastUpdateTime","type":"uint256","internalType":"uint256"},{"name":"isActive","type":"bool","internalType":"bool"},{"name":"rewardBalance","type":"uint256","internalType":"uint256"},{"name":"totalEarned","type":"uint256","internalType":"uint256"},{"name":"validationCount","type":"uint256","internalType":"uint256"},{"name":"successfulValidations","type":"uint256","internalType":"uint256"}]}],"stateMutability":"view"},{"type":"function","name":"getUserTier","inputs":[{"name":"user","type":"address","internalType":"address"}],"outputs":[{"name":"","type":"tuple","internalType":"struct CommunityInteractionRating.RewardTier","components":[{"name":"minTrustScore","type":"uint256","internalType":"uint256"},{"name":"baseReward","type":"uint256","internalType":"uint256"},{"name":"validationReward","type":"uint256","internalType":"uint256"},{"name":"tierName","type":"string","internalType":"string"}]}],"stateMutability":"view"},{"type":"function","name":"hasUserRatedUser","inputs":[{"name":"","type":"address","internalType":"address"},{"name":"","type":"address","internalType":"address"}],"outputs":[{"name":"","type":"bool","internalType":"bool"}],"stateMutability":"view"},{"type":"function","name":"pendingRewards","inputs":[{"name":"","type":"address","internalType":"address"}],"outputs":[{"name":"","type":"uint256","internalType":"uint256"}],"stateMutability":"view"},{"type":"function","name":"recordComment","inputs":[{"name":"commentText","type":"string","internalType":"string"}],"outputs":[],"stateMutability":"nonpayable"},{"type":"function","name":"recordHelpfulResponse","inputs":[{"name":"helper","type":"address","internalType":"address"}],"outputs":[],"stateMutability":"nonpayable"},{"type":"function","name":"recordLike","inputs":[{"name":"postId","type":"string","internalType":"string"}],"outputs":[],"stateMutability":"nonpayable"},{"type":"function","name":"recordPost","inputs":[{"name":"postTitle","type":"string","internalType":"string"}],"outputs":[],"stateMutability":"nonpayable"},{"type":"function","name":"recordValidation","inputs":[{"name":"validator","type":"address","internalType":"address"},{"name":"user","type":"address","internalType":"address"},{"name":"successful","type":"bool","internalType":"bool"}],"outputs":[],"stateMutability":"nonpayable"},{"type":"function","name":"registerUser","inputs":[{"name":"username","type":"string","internalType":"string"}],"outputs":[],"stateMutability":"nonpayable"},{"type":"function","name":"reportUser","inputs":[{"name":"reportedUser","type":"address","internalType":"address"},{"name":"reason","type":"string","internalType":"string"}],"outputs":[],"stateMutability":"nonpayable"},{"type":"function","name":"rewardTiers","inputs":[{"name":"","type":"uint256","internalType":"uint256"}],"outputs":[{"name":"minTrustScore","type":"uint256","internalType":"uint256"},{"name":"baseReward","type":"uint256","internalType":"uint256"},{"name":"validationReward","type":"uint256","internalType":"uint256"},{"name":"tierName","type":"string","internalType":"string"}],"stateMutability":"view"},{"type":"function","name":"totalInteractions","inputs":[],"outputs":[{"name":"","type":"uint256","internalType":"uint256"}],"stateMutability":"view"},{"type":"function","name":"totalRewardsDistributed","inputs":[],"outputs":[{"name":"","type":"uint256","internalType":"uint256"}],"stateMutability":"view"},{"type":"function","name":"userInteractionHistory","inputs":[{"name":"","type":"address","internalType":"address"},{"name":"","type":"uint256","internalType":"uint256"}],"outputs":[{"name":"user","type":"address","internalType":"address"},{"name":"interactionType","type":"string","internalType":"string"},{"name":"timestamp","type":"uint256","internalType":"uint256"},{"name":"value","type":"uint256","internalType":"uint256"},{"name":"metadata","type":"string","internalType":"string"}],"stateMutability":"view"},{"type":"function","name":"userProfiles","inputs":[{"name":"","type":"address","internalType":"address"}],"outputs":[{"name":"username","type":"string","internalType":"string"},{"name":"likes","type":"uint256","internalType":"uint256"},{"name":"comments","type":"uint256","internalType":"uint256"},{"name":"posts","type":"uint256","internalType":"uint256"},{"name":"helpfulResponses","type":"uint256","internalType":"uint256"},{"name":"reportsReceived","type":"uint256","internalType":"uint256"},{"name":"reportsMade","type":"uint256","internalType":"uint256"},{"name":"trustScore","type":"uint256","internalType":"uint256"},{"name":"lastUpdateTime","type":"uint256","internalType":"uint256"},{"name":"isActive","type":"bool","internalType":"bool"},{"name":"rewardBalance","type":"uint256","internalType":"uint256"},{"name":"totalEarned","type":"uint256","internalType":"uint256"},{"name":"validationCount","type":"uint256","internalType":"uint256"},{"name":"successfulValidations","type":"uint256","internalType":"uint256"}],"stateMutability":"view"},{"type":"function","name":"withdrawRewards","inputs":[{"name":"amount","type":"uint256","internalType":"uint256"}],"outputs":[],"stateMutability":"nonpayable"},{"type":"event","name":"InteractionRecorded","inputs":[{"name":"user","type":"address","indexed":true,"internalType":"address"},{"name":"interactionType","type":"string","indexed":false,"internalType":"string"},{"name":"value","type":"uint256","indexed":false,"internalType":"uint256"},{"name":"timestamp","type":"uint256","indexed":false,"internalType":"uint256"}],"anonymous":false},{"type":"event","name":"RewardClaimed","inputs":[{"name":"user","type":"address","indexed":true,"internalType":"address"},{"name":"amount","type":"uint256","indexed":false,"internalType":"uint256"}],"anonymous":false},{"type":"event","name":"RewardEarned","inputs":[{"name":"user","type":"address","indexed":true,"internalType":"address"},{"name":"amount","type":"uint256","indexed":false,"internalType":"uint256"},{"name":"reason","type":"string","indexed":false,"internalType":"string"}],"anonymous":false},{"type":"event","name":"TrustScoreUpdated","inputs":[{"name":"user","type":"address","indexed":true,"internalType":"address"},{"name":"newScore","type":"uint256","indexed":false,"internalType":"uint256"},{"name":"timestamp","type":"uint256","indexed":false,"internalType":"uint256"}],"anonymous":false},{"type":"event","name":"UserReported","inputs":[{"name":"reporter","type":"address","indexed":true,"internalType":"address"},{"name":"reported","type":"address","indexed":true,"internalType":"address"},{"name":"reason","type":"string","indexed":false,"internalType":"string"}],"anonymous":false},{"type":"event","name":"ValidationPerformed","inputs":[{"name":"validator","type":"address","indexed":true,"internalType":"address"},{"name":"user","type":"address","indexed":true,"internalType":"address"},{"name":"successful","type":"bool","indexed":false,"internalType":"bool"},{"name":"reward","type":"uint256","indexed":false,"internalType":"uint256"}],"anonymous":false}],"bytecode":{"object":"0x60406080815234620002dd5762000015620002e1565b5f815260016200005360209282848201526002858201526200003662000301565b600681526542726f6e7a6560d01b85820152606082015262000321565b6200009862000061620002e1565b606481526003848201526005858201526200007b62000301565b600681526529b4b63b32b960d11b85820152606082015262000321565b620000dc620000a6620002e1565b6101f48152600584820152600a85820152620000c162000301565b600481526311dbdb1960e21b85820152606082015262000321565b620000e6620002e1565b916103e88352808301600a815284840193601485526200010562000301565b946008865267506c6174696e756d60c01b84870152606082019586526006549268010000000000000000841015620002b55785840180600655841015620002c95760039360065f52855f209060021b019251835551858301555160028201550192519081519160018060401b038311620002b55784548481811c91168015620002aa575b838210146200029657601f81116200024b575b5081601f8411600114620001e457509282939183925f94620001d8575b50501b915f199060031b1c19161790555b5161337b90816200049f8239f35b015192505f80620001b9565b919083601f198116875f52845f20945f905b8883831062000230575050501062000217575b505050811b019055620001ca565b01515f1960f88460031b161c191690555f808062000209565b858701518855909601959485019487935090810190620001f6565b855f52825f20601f850160051c8101918486106200028b575b601f0160051c019085905b8281106200027f5750506200019c565b5f81550185906200026f565b909150819062000264565b634e487b7160e01b5f52602260045260245ffd5b90607f169062000189565b634e487b7160e01b5f52604160045260245ffd5b634e487b7160e01b5f52603260045260245ffd5b5f80fd5b60405190608082016001600160401b03811183821017620002b557604052565b60408051919082016001600160401b03811183821017620002b557604052565b60065468010000000000000000811015620002b55760019081810180600655811015620002c95760065f5260606003602092835f209060021b0185518155838601518582015560408601516002820155019301519081519160018060401b038311620002b55784548481811c9116801562000493575b838210146200029657601f811162000448575b5081601f8411600114620003e557509282939183925f94620003d9575b50501b915f199060031b1c1916179055565b015192505f80620003c7565b919083601f198116875f52845f20945f905b888383106200042d575050501062000414575b505050811b019055565b01515f1960f88460031b161c191690555f80806200040a565b858701518855909601959485019487935090810190620003f7565b855f52825f20601f850160051c81019184861062000488575b601f0160051c019085905b8281106200047c575050620003aa565b5f81550185906200046c565b909150819062000461565b90607f16906200039756fe6080806040526004361015610012575f80fd5b5f3560e01c90816306032d74146129e45750806306817f46146129b95780631c99c13a1461264157806331d7a26214612609578063332d56d714612524578063372500ab146124685780633bcd8fe6146121e557806360f6bc121461213d5780636f7ead8f14611cb4578063704f1b94146119b1578063803ae5181461196f57806386f6cd33146114285780639188c4af146113a65780639342c8f4146112d8578063987ee156146110f2578063a1d49381146110a0578063a843651e14611083578063b7ef556114610d14578063c075e3dd14610c85578063c90a8dea14610c6a578063d4dce62914610c4f578063e0eb0256146108af578063e4d2620e1461084a578063e7c52d441461082d578063ee1725461461082d578063ef549126146106c5578063fe44655c146101c05763ff20111414610150575f80fd5b346101bc5760203660031901126101bc576004356006548110156101bc5761017790612d9a565b5080546101b8600183015492610194600360028301549201612c96565b90604051948594855260208501526040840152608060608401526080830190612b3d565b0390f35b5f80fd5b346101bc5760403660031901126101bc576101d9612b11565b60249081356001600160401b0381116101bc576101fa903690600401612c09565b90335f525f60205261021560ff600960405f20015416612e01565b6001600160a01b038181169390919033851461068857845f525f60205260ff600960405f2001541615610644576040519061024f82612bcd565b60068252651c995c1bdc9d60d21b60208301526040519361026f85612b97565b868552602085018381524260408701525f6060870152866080870152875f52600160205260405f20805490600160401b82101561063157906102b691600182018155612d38565b92909261061f57865183546001600160a01b0319169116178255518051906001600160401b03821161060c576102ef6001840154612c5e565b601f81116105c8575b50602090601f8311600114610557579180608094926004945f9261054c575b50508160011b915f199060031b1c19161760018201555b6040870151600282015560608701516003820155019401518051916001600160401b0383116105395750908692916103668654612c5e565b601f81116104e5575b50602090601f83116001146104655795826103d5935f80516020613326833981519152959361041d995f9261045a575b50508160011b915f199060031b1c19161790555b6103be600454612e3f565b600455604051918291606083526060830190612b3d565b5f60208301524260408301520390a2835f525f602052600560405f20016103fc8154612e3f565b9055335f525f602052600660405f20016104168154612e3f565b905561311a565b7f7888dedd90a268534aba7d434ce4e27c597cf09ddae624c388f4996fc9b2af3f604051602081528061045533946020830190612b3d565b0390a3005b015190508b8061039f565b601f9692919619821690835f5260205f20915f5b8181106104ca5750926103d5949261041d99600193835f805160206133268339815191529997106104b2575b505050811b0190556103b3565b01515f1960f88460031b161c191690558b80806104a5565b828a015184556020998a01998c985060019094019301610479565b9091929350855f5260205f20601f840160051c8101916020851061052f575b90601f8a96959493920160051c01905b818110610521575061036f565b5f8155899550600101610514565b9091508190610504565b634e487b7160e01b5f9081526041600452fd5b015190508b80610317565b90600184015f5260205f20915f5b601f19851681106105b05750926080949260019260049583601f19811610610598575b505050811b01600182015561032e565b01515f1960f88460031b161c191690558b8080610588565b91926020600181928685015181550194019201610565565b600184015f5260205f20601f840160051c810160208510610605575b601f830160051c820181106105fa5750506102f8565b5f81556001016105e4565b50806105e4565b83634e487b7160e01b5f5260416004525ffd5b83634e487b7160e01b5f525f6004525ffd5b84634e487b7160e01b5f5260416004525ffd5b60649060186040519162461bcd60e51b8352602060048401528201527f5265706f727465642075736572206e6f742061637469766500000000000000006044820152fd5b60649060166040519162461bcd60e51b8352602060048401528201527521b0b73737ba103932b837b93a103cb7bab939b2b63360511b6044820152fd5b346101bc576020806003193601126101bc576001600160a01b0390816106e9612b11565b165f52600180825260405f2092835461070181612e5a565b9061070f6040519283612be8565b80825284820180965f52855f205f915b8383106107c75750505050604051938085019181865251809252604085019260408360051b87010196935f915b8483106107595787890388f35b90919293949584806107b5839b603f198c82030187528a5161078e60a088835116845285830151908087860152840190612b3d565b91604082015160408201526060808301519082015260808092015191818403910152612b3d565b9a98019695949190910192019061074c565b95600588829a9860409a97989a516107de81612b97565b8b86541681526107ef858701612c96565b83820152600286015460408201526003860154606082015261081360048701612c96565b60808201528152019201920191909795979694939661071f565b346101bc575f3660031901126101bc576020600554604051908152f35b346101bc5760203660031901126101bc576060610876610868612b11565b610870612ef5565b50612f19565b6101b8604051928392602084528051602085015260208101516040850152604081015182850152015160808084015260a0830190612b3d565b346101bc5760203660031901126101bc576001600160401b036004358181116101bc576108e0903690600401612c09565b335f525f6020526108fa60ff600960405f20015416612e01565b6040519061090782612bcd565b60048252631c1bdcdd60e21b60208301526040519061092582612b97565b3382526020820190838252426040840152600560608401526080830152335f52600160205260405f208054600160401b811015610b645761096b91600182018155612d38565b919091610c3c57825182546001600160a01b0319166001600160a01b039190911617825551805190858211610b64576109a76001840154612c5e565b601f8111610bf4575b50602090601f8311600114610b83579180608094926004945f92610b78575b50508160011b915f199060031b1c19161760018201555b604084015160028201556060840151600382015501910151928351908111610b6457610a128254612c5e565b601f8111610b1f575b506020601f8211600114610abd57819293945f92610ab2575b50508160011b915f199060031b1c19161790555b610a53600454612e3f565b6004555f80516020613326833981519152610a7960405192606084526060840190612b3d565b91600560208201524260408201528033930390a2335f525f602052600360405f2001610aa58154612e3f565b9055610ab03361311a565b005b015190508480610a34565b601f19821690835f5260205f20915f5b818110610b0757509583600195969710610aef575b505050811b019055610a48565b01515f1960f88460031b161c19169055848080610ae2565b9192602060018192868b015181550194019201610acd565b825f5260205f20601f830160051c81019160208410610b5a575b601f0160051c01905b818110610b4f5750610a1b565b5f8155600101610b42565b9091508190610b39565b634e487b7160e01b5f52604160045260245ffd5b0151905088806109cf565b90600184015f5260205f20915f5b601f1985168110610bdc5750926080949260019260049583601f19811610610bc4575b505050811b0160018201556109e6565b01515f1960f88460031b161c19169055888080610bb4565b91926020600181928685015181550194019201610b91565b600184015f5260205f20601f840160051c81019160208510610c32575b601f0160051c01905b818110610c2757506109b0565b5f8155600101610c1a565b9091508190610c11565b634e487b7160e01b5f525f60045260245ffd5b346101bc575f3660031901126101bc576020604051600a8152f35b346101bc575f3660031901126101bc57602060405160058152f35b346101bc575f3660031901126101bc576003805460045481610cba57606092505f905b60405192835260208301526040820152f35b5f925f905b838210610cda575050610cd482606094612ed7565b90610ca8565b9093610d0c600191610ceb87612d65565b848060a01b03915490861b1c165f525f602052600760405f20015490612e4d565b940190610cbf565b346101bc5760203660031901126101bc576001600160401b036004358181116101bc57610d45903690600401612c09565b335f525f602052610d5f60ff600960405f20015416612e01565b60405190610d6c82612bcd565b600782526618dbdb5b595b9d60ca1b602083015260405190610d8d82612b97565b3382526020820190838252426040840152600360608401526080830152335f52600160205260405f208054600160401b811015610b6457610dd391600182018155612d38565b919091610c3c57825182546001600160a01b0319166001600160a01b039190911617825551805190858211610b6457610e0f6001840154612c5e565b601f811161103b575b50602090601f8311600114610fca579180608094926004945f92610fbf575b50508160011b915f199060031b1c19161760018201555b604084015160028201556060840151600382015501910151928351908111610b6457610e7a8254612c5e565b601f8111610f7a575b506020601f8211600114610f1857819293945f92610f0d575b50508160011b915f199060031b1c19161790555b610ebb600454612e3f565b6004555f80516020613326833981519152610ee160405192606084526060840190612b3d565b91600360208201524260408201528033930390a2335f525f602052600260405f2001610aa58154612e3f565b015190508480610e9c565b601f19821690835f5260205f20915f5b818110610f6257509583600195969710610f4a575b505050811b019055610eb0565b01515f1960f88460031b161c19169055848080610f3d565b9192602060018192868b015181550194019201610f28565b825f5260205f20601f830160051c81019160208410610fb5575b601f0160051c01905b818110610faa5750610e83565b5f8155600101610f9d565b9091508190610f94565b015190508880610e37565b90600184015f5260205f20915f5b601f19851681106110235750926080949260019260049583601f1981161061100b575b505050811b016001820155610e4e565b01515f1960f88460031b161c19169055888080610ffb565b91926020600181928685015181550194019201610fd8565b600184015f5260205f20601f840160051c81019160208510611079575b601f0160051c01905b81811061106e5750610e18565b5f8155600101611061565b9091508190611058565b346101bc575f3660031901126101bc576020600454604051908152f35b346101bc5760403660031901126101bc576110b9612b11565b6110c1612b27565b9060018060a01b038091165f52600260205260405f2091165f52602052602060ff60405f2054166040519015158152f35b346101bc5760203660031901126101bc5761110b612b11565b5f6101a060405161111b81612b7b565b606081528260208201528260408201528260608201528260808201528260a08201528260c08201528260e08201528261010082015282610120820152826101408201528261016082015282610180820152015260018060a01b03165f525f60205260405f20600d6040519161118f83612b7b565b61119881612c96565b835260018101546020840152600281015460408401526003810154606084015260048101546080840152600581015460a0840152600681015460c0840152600781015460e0840152600881015461010084015260ff6009820154161515610120840152600a810154610140840152600b810154610160840152600c81015461018084015201546101a08201526040518091602082526101a061124882516101c060208601526101e0850190612b3d565b91602081015160408501526040810151606085015260608101516080850152608081015160a085015260a081015160c085015260c081015160e085015260e081015161010085015261010081015161012085015261012081015115156101408501526101408101516101608501526101608101516101808501526101808101518285015201516101c08301520390f35b346101bc576020806003193601126101bc5760043590335f525f815261130760ff600960405f20015416612e01565b335f525f815281600a60405f20015410611362577f106f923f993c2149d49b4255ff723acafa1f2d94393f561d3eda32ae348f724190335f525f8152600a60405f2001611355848254612eb7565b90556040519283523392a2005b6064906040519062461bcd60e51b82526004820152601b60248201527f496e73756666696369656e74207265776172642062616c616e636500000000006044820152fd5b346101bc5760603660031901126101bc576113bf612b11565b604435906001600160401b0382116101bc576113e2610ab0923690600401612c09565b90335f525f6020526113fd60ff600960405f20015416612e01565b60018060a01b0381165f525f60205261141f60ff600960405f20015416612e01565b6024359061327c565b346101bc5760603660031901126101bc57611441612b11565b611449612b27565b60443590811515918281036101bc57335f525f60205261147260ff600960405f20015416612e01565b336001600160a01b0385160361192a5760018060a01b0384165f525f6020528060405f20600c81016114a48154612e3f565b9055600a9161190f575b506114d69060206114cd6114c188612f19565b92604084015190612ec4565b91015190612ed7565b90156118eb576040516114e881612bcd565b600a8152691cdd58d8d95cdcd99d5b60b21b60208201525b6040519061150d82612bcd565b600a8252693b30b634b230ba34b7b760b11b602083015260405161153081612b97565b60018060a01b0387168152602081019183835242604083015260026060830152608082015260018060a01b0387165f52600160205260405f208054600160401b811015610b645761158691600182018155612d38565b929092610c3c57815183546001600160a01b0319166001600160a01b0391909116178355518051906001600160401b038211610b64576115c96001850154612c5e565b601f81116118a3575b50602090601f83116001146118345760809392915f9183611829575b50508160011b915f199060031b1c19161760018401555b604081015160028401556060810151600384015501518051906001600160401b038211610b64576116396004840154612c5e565b601f81116117e1575b50602090601f831160011461174e57827fa8b5dd0ce45d0ce48a525020ebdaab97adfe7566b798964c89c7e141202dbbb497959360409795936004935f92611743575b50508160011b915f199060031b1c1916179101555b6116a5600454612e3f565b6004555f805160206133268339815191526116ca855192606084526060840190612b3d565b6002602084015242868401526001600160a01b038916929081900390a261171f83516116f581612bcd565b60168152752a3930b739b0b1ba34b7b7103b30b634b230ba34b7b760511b6020820152828861327c565b6117288661311a565b825194855260208501526001600160a01b03908116941692a3005b015190508b80611685565b90600484015f5260205f20915f5b601f19851681106117c957508360409795936004936001937fa8b5dd0ce45d0ce48a525020ebdaab97adfe7566b798964c89c7e141202dbbb49b9997601f198116106117b1575b505050811b0191015561169a565b01515f1960f88460031b161c191690558b80806117a3565b9192602060018192868501518155019401920161175c565b600484015f5260205f20601f840160051c8101916020851061181f575b601f0160051c01905b8181106118145750611642565b5f8155600101611807565b90915081906117fe565b015190508a806115ee565b90600185015f5260205f20915f5b601f198516811061188b575091839160019360809695601f19811610611873575b505050811b016001840155611605565b01515f1960f88460031b161c191690558a8080611863565b91926020600181928685015181550194019201611842565b600185015f5260205f20601f840160051c810191602085106118e1575b601f0160051c01905b8181106118d657506115d2565b5f81556001016118c9565b90915081906118c0565b6040516118f781612bcd565b600681526519985a5b195960d21b6020820152611500565b600d91500161191e8154612e3f565b9055600f6114d66114ae565b60405162461bcd60e51b815260206004820152601f60248201527f43616e206f6e6c79207265636f7264206f776e2076616c69646174696f6e73006044820152606490fd5b346101bc5760203660031901126101bc576004356003548110156101bc57611998602091612d65565b905460405160039290921b1c6001600160a01b03168152f35b346101bc5760203660031901126101bc576001600160401b036004358181116101bc576119e2903690600401612c09565b335f525f60205260ff600960405f20015416611c6f5760405190611a0582612b7b565b81525f60208201525f60408201525f60608201525f60808201525f60a08201525f60c0820152606460e08201524261010082015260016101208201525f6101408201525f6101608201525f6101808201525f6101a0820152335f525f60205260405f209181518051918211610b6457611a7e8454612c5e565b601f8111611c2e575b50602090601f8311600114611bc2579180600d94926101a0945f92611bb7575b50508160011b915f199060031b1c19161784555b6020810151600185015560408101516002850155606081015160038501556080810151600485015560a0810151600585015560c0810151600685015560e08101516007850155610100810151600885015560098401610120820151151560ff80198354169116179055610140810151600a850155610160810151600b850155610180810151600c8501550151910155600354600160401b811015610b6457806001611b699201600355612d65565b81549060031b9033821b9160018060a01b03901b1916179055604051606481524260208201527f15dd57e0cde9af9083c846eb39c9da382e907c0036818e4a163ecd167e5f327660403392a2005b015190508680611aa7565b90845f5260205f20915f5b601f1985168110611c16575092600d94926001926101a09583601f19811610611bfe575b505050811b018455611abb565b01515f1960f88460031b161c19169055868080611bf1565b91926020600181928685015181550194019201611bcd565b845f5260205f20601f840160051c810160208510611c68575b601f830160051c82018110611c5d575050611a87565b5f8155600101611c47565b5080611c47565b60405162461bcd60e51b815260206004820152601760248201527f5573657220616c726561647920726567697374657265640000000000000000006044820152606490fd5b346101bc5760203660031901126101bc57611ccd612b11565b335f525f602052611ce760ff600960405f20015416612e01565b6001600160a01b039080821633146120ec57335f52600260205260405f208282165f5260205260ff60405f2054166120a75760405191611d2683612bcd565b60078352661a195b1c199d5b60ca1b602084015260405192611d4784612bcd565b601084526f48656c7066756c20726573706f6e736560801b602085015260405193611d7185612b97565b82841685526020850190828252426040870152600a606087015260808601528284165f52600160205260405f208054600160401b811015610b6457611dbb91600182018155612d38565b919091610c3c57855182546001600160a01b031916908516178255518051906001600160401b038211610b6457611df56001840154612c5e565b601f811161205f575b50602090601f8311600114611fee579180608094926004945f92611fe3575b50508160011b915f199060031b1c19161760018201555b604087015160028201556060870151600382015501940151938451946001600160401b038611610b6457611e688254612c5e565b601f8111611f9e575b50602090601f8711600114611f3757610ab096915f9183611f2c575b50508160011b915f199060031b1c19161790555b611eac600454612e3f565b6004555f80516020613326833981519152611ed260405192606084526060840190612b3d565b91600a602082015242604082015280848616930390a28082165f525f602052600460405f2001611f028154612e3f565b9055335f52600260205260405f209082165f5260205260405f20600160ff1982541617905561311a565b015190508780611e8d565b90601f19871691835f5260205f20925f5b818110611f865750916001939189610ab09a9410611f6e575b505050811b019055611ea1565b01515f1960f88460031b161c19169055878080611f61565b92936020600181928786015181550195019301611f48565b825f5260205f20601f880160051c81019160208910611fd9575b601f0160051c01905b818110611fce5750611e71565b5f8155600101611fc1565b9091508190611fb8565b015190508980611e1d565b90600184015f5260205f20915f5b601f19851681106120475750926080949260019260049583601f1981161061202f575b505050811b016001820155611e34565b01515f1960f88460031b161c1916905589808061201f565b91926020600181928685015181550194019201611ffc565b600184015f5260205f20601f840160051c8101916020851061209d575b601f0160051c01905b8181106120925750611dfe565b5f8155600101612085565b909150819061207c565b60405162461bcd60e51b815260206004820152601760248201527f416c7265616479207261746564207468697320757365720000000000000000006044820152606490fd5b60405162461bcd60e51b815260206004820152602360248201527f43616e6e6f74206d61726b206f776e20726573706f6e73652061732068656c70604482015262199d5b60ea1b6064820152608490fd5b346101bc5760403660031901126101bc57612156612b11565b6001600160a01b039081165f9081526001602052604090208054602435908110156101bc5761218491612d38565b50908154166101b861219860018401612c96565b926002810154906121b0600460038301549201612c96565b906121cd604051968796875260a0602088015260a0870190612b3d565b92604086015260608501528382036080850152612b3d565b346101bc576020806003193601126101bc5760043560039160035491828111612461575b9061221382612e71565b61221c83612e71565b9061222685612e71565b9361223086612e71565b965f5b8781106124005750505f935f19938488019388851193845b6123115785881015612332575f5b612263898c612eb7565b888101908111612311578110156123255761227e818d612ea3565b519060018101808211612311576001926122998f8390612ea3565b51116122a7575b5001612259565b8d6122d3826122b68584612ea3565b51926122c28282612ea3565b516122cd8783612ea3565b52612ea3565b5261230a838060a01b03918d61230385856122ee8285612ea3565b5116956122fb8585612ea3565b511692612ea3565b528d612ea3565b528d6122a0565b634e487b7160e01b5f52601160045260245ffd5b506001909701968461224b565b8a895f5b8381106123c2578685876040519283926040840160408552815180915282606086019201905f5b8181106123a257505050838103828501528180845192838152019301915f5b82811061238b57505050500390f35b83518552869550938101939281019260010161237c565b82516001600160a01b03168452879650928401929184019160010161235d565b6001906001600160a01b036123d78285612ea3565b51166123e38288612ea3565b526123ee8185612ea3565b516123f98289612ea3565b5201612336565b80612412600192979597969496612d65565b90838060a01b039182915490861b1c1661242c838b612ea3565b5261243682612d65565b905490851b1c165f525f8552600760405f200154612454828c612ea3565b5201949294939193612233565b5081612209565b346101bc575f3660031901126101bc57335f5260205f815261249360ff600960405f20015416612e01565b335f526007815260405f20549081156124ea577f106f923f993c2149d49b4255ff723acafa1f2d94393f561d3eda32ae348f724190335f52600781525f60408120555f8152600a60405f2001611355848254612e4d565b6064906040519062461bcd60e51b8252600482015260136024820152724e6f207265776172647320746f20636c61696d60681b6044820152fd5b346101bc5760203660031901126101bc576001600160a01b03612545612b11565b165f525f60205260405f2061255981612c96565b60018201546002830154926003810154906004810154600582015460068301546007840154600885015490600986015460ff1692600a87015494600b88015496600c89015498600d0154996040519d8e809e6101c080835282016125bc91612b3d565b9d60208201526040015260608d015260808c015260a08b015260c08a015260e089015261010088015215156101208701526101408601526101608501526101808401526101a08301520390f35b346101bc5760203660031901126101bc576001600160a01b0361262a612b11565b165f526007602052602060405f2054604051908152f35b346101bc5760203660031901126101bc576004356001600160401b0381116101bc57612671903690600401612c09565b335f525f60205261268b60ff600960405f20015416612e01565b60405161269781612bcd565b60048152636c696b6560e01b6020820152604051916126b583612b97565b3383526020830190828252426040850152600160608501526080840152335f52600160205260405f208054600160401b811015610b64576126fb91600182018155612d38565b919091610c3c57835182546001600160a01b0319166001600160a01b0391909116178255518051906001600160401b038211610b645761273e6001840154612c5e565b601f8111612971575b50602090601f8311600114612900579180608094926004945f926128f5575b50508160011b915f199060031b1c19161760018201555b6040850151600282015560608501516003820155019201519182516001600160401b038111610b64576127b08254612c5e565b601f81116128b0575b506020601f821160011461284e57819293945f92612843575b50508160011b915f199060031b1c19161790555b6127f1600454612e3f565b6004555f8051602061332683398151915261281760405192606084526060840190612b3d565b91600160208201524260408201528033930390a2335f525f602052600160405f2001610aa58154612e3f565b0151905084806127d2565b601f19821690835f5260205f20915f5b81811061289857509583600195969710612880575b505050811b0190556127e6565b01515f1960f88460031b161c19169055848080612873565b9192602060018192868b01518155019401920161285e565b825f5260205f20601f830160051c810191602084106128eb575b601f0160051c01905b8181106128e057506127b9565b5f81556001016128d3565b90915081906128ca565b015190508780612766565b90600184015f5260205f20915f5b601f19851681106129595750926080949260019260049583601f19811610612941575b505050811b01600182015561277d565b01515f1960f88460031b161c19169055878080612931565b9192602060018192868501518155019401920161290e565b600184015f5260205f20601f840160051c810191602085106129af575b601f0160051c01905b8181106129a45750612747565b5f8155600101612997565b909150819061298e565b346101bc5760203660031901126101bc5760206129dc6129d7612b11565b612dd2565b604051908152f35b346101bc5760203660031901126101bc576129fd612b11565b6101b860018060a01b03821692835f525f60205260405f2090612a1f81612b7b565b612a2882612c96565b815260018201546020820152600282015460408201526003820154606082015260048201546080820152600582015460a0820152600682015460c0820152600782015460e0820152600882015461010082015260ff6009830154161515610120820152600a820154906101408101918252612ac9600b8401549561016083019687526101a0600d600c87015496610180860197885201549301928352612f19565b91519451955f526007602052606060405f205493519151920151926040519687968752602087015260408601526060850152608084015260c060a084015260c0830190612b3d565b600435906001600160a01b03821682036101bc57565b602435906001600160a01b03821682036101bc57565b91908251928382525f5b848110612b67575050825f602080949584010152601f8019910116010190565b602081830181015184830182015201612b47565b6101c081019081106001600160401b03821117610b6457604052565b60a081019081106001600160401b03821117610b6457604052565b608081019081106001600160401b03821117610b6457604052565b604081019081106001600160401b03821117610b6457604052565b90601f801991011681019081106001600160401b03821117610b6457604052565b81601f820112156101bc578035906001600160401b038211610b645760405192612c3d601f8401601f191660200185612be8565b828452602083830101116101bc57815f926020809301838601378301015290565b90600182811c92168015612c8c575b6020831014612c7857565b634e487b7160e01b5f52602260045260245ffd5b91607f1691612c6d565b9060405191825f8254612ca881612c5e565b908184526020946001916001811690815f14612d165750600114612cd8575b505050612cd692500383612be8565b565b5f90815285812095935091905b818310612cfe575050612cd693508201015f8080612cc7565b85548884018501529485019487945091830191612ce5565b92505050612cd694925060ff191682840152151560051b8201015f8080612cc7565b8054821015612d51575f52600560205f20910201905f90565b634e487b7160e01b5f52603260045260245ffd5b600354811015612d515760035f527fc2575a0e9e593c00f959f8c92f12db2869c3395a3b0502d05e2516446f71f85b01905f90565b600654811015612d515760065f5260021b7ff652222313e28459528d920b65115c16c04f3efc82aaedc97be59f3f377c0d3f01905f90565b6001600160a01b03165f908152602081905260409020600981015460ff1615612dfc576007015490565b505f90565b15612e0857565b60405162461bcd60e51b815260206004820152600f60248201526e55736572206e6f742061637469766560881b6044820152606490fd5b5f1981146123115760010190565b9190820180921161231157565b6001600160401b038111610b645760051b60200190565b90612e7b82612e5a565b612e886040519182612be8565b8281528092612e99601f1991612e5a565b0190602036910137565b8051821015612d515760209160051b010190565b9190820391821161231157565b8181029291811591840414171561231157565b8115612ee1570490565b634e487b7160e01b5f52601260045260245ffd5b60405190612f0282612bb2565b606080835f81525f60208201525f60408201520152565b612f21612ef5565b5060018060a01b03165f5260205f815260406007815f20015491600654908115612d515760065f52825192612f5584612bb2565b7ff652222313e28459528d920b65115c16c04f3efc82aaedc97be59f3f377c0d3f5484527ff652222313e28459528d920b65115c16c04f3efc82aaedc97be59f3f377c0d4054828501527ff652222313e28459528d920b65115c16c04f3efc82aaedc97be59f3f377c0d4154818501528051905f947ff652222313e28459528d920b65115c16c04f3efc82aaedc97be59f3f377c0d4283815497612ff889612c5e565b92838352600199886001821691825f146130fa57505060011461309e575b5061302392500384612be8565b6060926060820152955f5b85811061303f575050505050505090565b61304881612d9a565b5054821015613059575b860161302e565b96508561306588612d9a565b50613092600385519261307784612bb2565b80548452848101548985015260028101548785015201612c96565b85820152979050613052565b9150505f5283857f38ace9b5569ba016113e31884532182bc747997e743c0b7f9c307302b5f83760895f915b8583106130e157505061302393508201015f613016565b80919294505483858a01015201910186908987936130ca565b60ff19168582015261302395151560051b85010192505f91506130169050565b60018060a01b0316805f525f60205260405f206001810154808004600114811517156123115760028201546003810290808204600314901517156123115761316191612e4d565b60038201546005810290808204600514901517156123115761318291612e4d565b6004820154600a810290808204600a1490151715612311576131a391612e4d565b600c8201548060011b9080820460021490151715612311576131c491612e4d565b600582015490601482029180830460141490151715612311578181111561324f57906131ef91612eb7565b6064019081606411612311577f15dd57e0cde9af9083c846eb39c9da382e907c0036818e4a163ecd167e5f3276916040916103e8808311613247575b505b8160078201556008429101558151908152426020820152a2565b91505f61322b565b505060407f15dd57e0cde9af9083c846eb39c9da382e907c0036818e4a163ecd167e5f3276915f9061322d565b917f7832b7eebe8de153acecf46b96e9e04c64c883545a6285fcc564d16ae2d734149192600b6132cd60018060a01b03831695865f525f60205260206132c560405f2095612f19565b015190612ec4565b91855f52600760205260405f206132e5848254612e4d565b9055016132f3828254612e4d565b905561330181600554612e4d565b6005556133206040519283928352604060208401526040830190612b3d565b0390a256fe97429c81e1a08989fd0d3904b842813d7a7500decc9954ab6a89c7ebf13f3a0ea264697066735822122055e9a22199ea593599bf4da53350e7e3d3d4d0a0a81cb0cd760d52ee88de9ea264736f6c63430008180033","linkReferences":{}},"methodIdentifiers":{"SUCCESSFUL_VALIDATION_BONUS()":"c90a8dea","VALIDATION_BASE_REWARD()":"d4dce629","activeUsers(uint256)":"803ae518","awardCommunityReward(address,uint256,string)":"9188c4af","claimRewards()":"372500ab","getCommunityStats()":"c075e3dd","getRewardInfo(address)":"06032d74","getTopUsersNyTrustScore(uint256)":"3bcd8fe6","getTotalRewardsDistributed()":"e7c52d44","getTrustScoreForValidation(address)":"06817f46","getUserInteractionHistory(address)":"ef549126","getUserProfile(address)":"987ee156","getUserTier(address)":"e4d2620e","hasUserRatedUser(address,address)":"a1d49381","pendingRewards(address)":"31d7a262","recordComment(string)":"b7ef5561","recordHelpfulResponse(address)":"6f7ead8f","recordLike(string)":"1c99c13a","recordPost(string)":"e0eb0256","recordValidation(address,address,bool)":"86f6cd33","registerUser(string)":"704f1b94","reportUser(address,string)":"fe44655c","rewardTiers(uint256)":"ff201114","totalInteractions()":"a843651e","totalRewardsDistributed()":"ee172546","userInteractionHistory(address,uint256)":"60f6bc12","userProfiles(address)":"332d56d7","withdrawRewards(uint256)":"9342c8f4"},"id":21}