{"abi":[{"type":"constructor","inputs":[],"stateMutability":"nonpayable"},{"type":"function","name":"SUCCESSFUL_VALIDATION_BONUS","inputs":[],"outputs":[{"name":"","type":"uint256","internalType":"uint256"}],"stateMutability":"view"},{"type":"function","name":"TOKEN_DECIMALS","inputs":[],"outputs":[{"name":"","type":"uint8","internalType":"uint8"}],"stateMutability":"view"},{"type":"function","name":"TOKEN_NAME","inputs":[],"outputs":[{"name":"","type":"string","internalType":"string"}],"stateMutability":"view"},{"type":"function","name":"TOKEN_SYMBOL","inputs":[],"outputs":[{"name":"","type":"string","internalType":"string"}],"stateMutability":"view"},{"type":"function","name":"TOTAL_SUPPLY","inputs":[],"outputs":[{"name":"","type":"uint256","internalType":"uint256"}],"stateMutability":"view"},{"type":"function","name":"VALIDATION_BASE_REWARD","inputs":[],"outputs":[{"name":"","type":"uint256","internalType":"uint256"}],"stateMutability":"view"},{"type":"function","name":"activeUsers","inputs":[{"name":"","type":"uint256","internalType":"uint256"}],"outputs":[{"name":"","type":"address","internalType":"address"}],"stateMutability":"view"},{"type":"function","name":"awardCommunityReward","inputs":[{"name":"user","type":"address","internalType":"address"},{"name":"amount","type":"uint256","internalType":"uint256"},{"name":"reason","type":"string","internalType":"string"}],"outputs":[],"stateMutability":"nonpayable"},{"type":"function","name":"batchProcessQoneqtInteractions","inputs":[{"name":"users","type":"address[]","internalType":"address[]"},{"name":"interactionTypes","type":"uint8[]","internalType":"enum CommunityInteractionRating.QoneqtInteractionType[]"},{"name":"aiSignificances","type":"uint256[]","internalType":"uint256[]"},{"name":"metadatas","type":"string[]","internalType":"string[]"}],"outputs":[],"stateMutability":"nonpayable"},{"type":"function","name":"claimRewards","inputs":[],"outputs":[],"stateMutability":"nonpayable"},{"type":"function","name":"estimateQtoReward","inputs":[{"name":"user","type":"address","internalType":"address"},{"name":"interactionType","type":"uint8","internalType":"enum CommunityInteractionRating.QoneqtInteractionType"},{"name":"aiSignificance","type":"uint256","internalType":"uint256"}],"outputs":[{"name":"","type":"uint256","internalType":"uint256"}],"stateMutability":"view"},{"type":"function","name":"getCommunityStats","inputs":[],"outputs":[{"name":"totalUsers","type":"uint256","internalType":"uint256"},{"name":"totalInteractionsCount","type":"uint256","internalType":"uint256"},{"name":"averageTrustScore","type":"uint256","internalType":"uint256"}],"stateMutability":"view"},{"type":"function","name":"getGlobalQtoStats","inputs":[],"outputs":[{"name":"totalQtoInCirculation","type":"uint256","internalType":"uint256"},{"name":"totalQoneqtInteractions","type":"uint256","internalType":"uint256"},{"name":"averageSignificanceScore","type":"uint256","internalType":"uint256"},{"name":"totalUsersWithQto","type":"uint256","internalType":"uint256"}],"stateMutability":"view"},{"type":"function","name":"getInteractionBaseReward","inputs":[{"name":"interactionType","type":"uint8","internalType":"enum CommunityInteractionRating.QoneqtInteractionType"}],"outputs":[{"name":"","type":"uint256","internalType":"uint256"}],"stateMutability":"view"},{"type":"function","name":"getQtoRewardStats","inputs":[{"name":"user","type":"address","internalType":"address"}],"outputs":[{"name":"qtoBalance","type":"uint256","internalType":"uint256"},{"name":"totalQtoEarned","type":"uint256","internalType":"uint256"},{"name":"qoneqtInteractions","type":"uint256","internalType":"uint256"},{"name":"avgSignificanceScore","type":"uint256","internalType":"uint256"},{"name":"currentTier","type":"string","internalType":"string"}],"stateMutability":"view"},{"type":"function","name":"getQtoTokenInfo","inputs":[],"outputs":[{"name":"name","type":"string","internalType":"string"},{"name":"symbol","type":"string","internalType":"string"},{"name":"decimals","type":"uint8","internalType":"uint8"},{"name":"totalSupply","type":"uint256","internalType":"uint256"}],"stateMutability":"pure"},{"type":"function","name":"getRewardInfo","inputs":[{"name":"user","type":"address","internalType":"address"}],"outputs":[{"name":"rewardBalance","type":"uint256","internalType":"uint256"},{"name":"totalEarned","type":"uint256","internalType":"uint256"},{"name":"pendingReward","type":"uint256","internalType":"uint256"},{"name":"validationCount","type":"uint256","internalType":"uint256"},{"name":"successfulValidations","type":"uint256","internalType":"uint256"},{"name":"tierName","type":"string","internalType":"string"}],"stateMutability":"view"},{"type":"function","name":"getTotalRewardsDistributed","inputs":[],"outputs":[{"name":"","type":"uint256","internalType":"uint256"}],"stateMutability":"view"},{"type":"function","name":"getTrustScoreForValidation","inputs":[{"name":"user","type":"address","internalType":"address"}],"outputs":[{"name":"","type":"uint256","internalType":"uint256"}],"stateMutability":"view"},{"type":"function","name":"getUserInteractionHistory","inputs":[{"name":"user","type":"address","internalType":"address"}],"outputs":[{"name":"","type":"tuple[]","internalType":"struct CommunityInteractionRating.InteractionRecord[]","components":[{"name":"user","type":"address","internalType":"address"},{"name":"interactionType","type":"string","internalType":"string"},{"name":"timestamp","type":"uint256","internalType":"uint256"},{"name":"value","type":"uint256","internalType":"uint256"},{"name":"metadata","type":"string","internalType":"string"}]}],"stateMutability":"view"},{"type":"function","name":"getUserProfile","inputs":[{"name":"user","type":"address","internalType":"address"}],"outputs":[{"name":"","type":"tuple","internalType":"struct CommunityInteractionRating.UserProfile","components":[{"name":"username","type":"string","internalType":"string"},{"name":"likes","type":"uint256","internalType":"uint256"},{"name":"comments","type":"uint256","internalType":"uint256"},{"name":"posts","type":"uint256","internalType":"uint256"},{"name":"helpfulResponses","type":"uint256","internalType":"uint256"},{"name":"reportsReceived","type":"uint256","internalType":"uint256"},{"name":"reportsMade","type":"uint256","internalType":"uint256"},{"name":"trustScore","type":"uint256","internalType":"uint256"},{"name":"lastUpdateTime","type":"uint256","internalType":"uint256"},{"name":"isActive","type":"bool","internalType":"bool"},{"name":"rewardBalance","type":"uint256","internalType":"uint256"},{"name":"totalEarned","type":"uint256","internalType":"uint256"},{"name":"validationCount","type":"uint256","internalType":"uint256"},{"name":"successfulValidations","type":"uint256","internalType":"uint256"},{"name":"qtoBalance","type":"uint256","internalType":"uint256"},{"name":"totalQtoEarned","type":"uint256","internalType":"uint256"},{"name":"qoneqtInteractions","type":"uint256","internalType":"uint256"},{"name":"avgSignificanceScore","type":"uint256","internalType":"uint256"}]}],"stateMutability":"view"},{"type":"function","name":"getUserSignificanceHistory","inputs":[{"name":"user","type":"address","internalType":"address"}],"outputs":[{"name":"","type":"tuple[]","internalType":"struct CommunityInteractionRating.SignificanceReward[]","components":[{"name":"baseAmount","type":"uint256","internalType":"uint256"},{"name":"multiplier","type":"uint256","internalType":"uint256"},{"name":"finalAmount","type":"uint256","internalType":"uint256"},{"name":"interactionType","type":"string","internalType":"string"},{"name":"significance","type":"string","internalType":"string"},{"name":"timestamp","type":"uint256","internalType":"uint256"}]}],"stateMutability":"view"},{"type":"function","name":"getUserTier","inputs":[{"name":"user","type":"address","internalType":"address"}],"outputs":[{"name":"","type":"tuple","internalType":"struct CommunityInteractionRating.RewardTier","components":[{"name":"minTrustScore","type":"uint256","internalType":"uint256"},{"name":"baseReward","type":"uint256","internalType":"uint256"},{"name":"validationReward","type":"uint256","internalType":"uint256"},{"name":"qtoMultiplier","type":"uint256","internalType":"uint256"},{"name":"tierName","type":"string","internalType":"string"}]}],"stateMutability":"view"},{"type":"function","name":"hasUserRatedUser","inputs":[{"name":"","type":"address","internalType":"address"},{"name":"","type":"address","internalType":"address"}],"outputs":[{"name":"","type":"bool","internalType":"bool"}],"stateMutability":"view"},{"type":"function","name":"pendingRewards","inputs":[{"name":"","type":"address","internalType":"address"}],"outputs":[{"name":"","type":"uint256","internalType":"uint256"}],"stateMutability":"view"},{"type":"function","name":"processQoneqtInteraction","inputs":[{"name":"user","type":"address","internalType":"address"},{"name":"interactionType","type":"uint8","internalType":"enum CommunityInteractionRating.QoneqtInteractionType"},{"name":"aiSignificance","type":"uint256","internalType":"uint256"},{"name":"","type":"string","internalType":"string"}],"outputs":[],"stateMutability":"nonpayable"},{"type":"function","name":"qoneqtBaseRewards","inputs":[{"name":"","type":"uint8","internalType":"enum CommunityInteractionRating.QoneqtInteractionType"}],"outputs":[{"name":"","type":"uint256","internalType":"uint256"}],"stateMutability":"view"},{"type":"function","name":"qtoAllowance","inputs":[{"name":"owner","type":"address","internalType":"address"},{"name":"spender","type":"address","internalType":"address"}],"outputs":[{"name":"","type":"uint256","internalType":"uint256"}],"stateMutability":"view"},{"type":"function","name":"qtoAllowances","inputs":[{"name":"","type":"address","internalType":"address"},{"name":"","type":"address","internalType":"address"}],"outputs":[{"name":"","type":"uint256","internalType":"uint256"}],"stateMutability":"view"},{"type":"function","name":"qtoApprove","inputs":[{"name":"spender","type":"address","internalType":"address"},{"name":"amount","type":"uint256","internalType":"uint256"}],"outputs":[{"name":"","type":"bool","internalType":"bool"}],"stateMutability":"nonpayable"},{"type":"function","name":"qtoBalanceOf","inputs":[{"name":"account","type":"address","internalType":"address"}],"outputs":[{"name":"","type":"uint256","internalType":"uint256"}],"stateMutability":"view"},{"type":"function","name":"qtoBalances","inputs":[{"name":"","type":"address","internalType":"address"}],"outputs":[{"name":"","type":"uint256","internalType":"uint256"}],"stateMutability":"view"},{"type":"function","name":"qtoTotalSupply","inputs":[],"outputs":[{"name":"","type":"uint256","internalType":"uint256"}],"stateMutability":"view"},{"type":"function","name":"qtoTransfer","inputs":[{"name":"to","type":"address","internalType":"address"},{"name":"amount","type":"uint256","internalType":"uint256"}],"outputs":[{"name":"","type":"bool","internalType":"bool"}],"stateMutability":"nonpayable"},{"type":"function","name":"recordComment","inputs":[{"name":"commentText","type":"string","internalType":"string"}],"outputs":[],"stateMutability":"nonpayable"},{"type":"function","name":"recordHelpfulResponse","inputs":[{"name":"helper","type":"address","internalType":"address"}],"outputs":[],"stateMutability":"nonpayable"},{"type":"function","name":"recordLike","inputs":[{"name":"postId","type":"string","internalType":"string"}],"outputs":[],"stateMutability":"nonpayable"},{"type":"function","name":"recordPost","inputs":[{"name":"postTitle","type":"string","internalType":"string"}],"outputs":[],"stateMutability":"nonpayable"},{"type":"function","name":"recordValidation","inputs":[{"name":"validator","type":"address","internalType":"address"},{"name":"user","type":"address","internalType":"address"},{"name":"successful","type":"bool","internalType":"bool"}],"outputs":[],"stateMutability":"nonpayable"},{"type":"function","name":"registerUser","inputs":[{"name":"username","type":"string","internalType":"string"}],"outputs":[],"stateMutability":"nonpayable"},{"type":"function","name":"reportUser","inputs":[{"name":"reportedUser","type":"address","internalType":"address"},{"name":"reason","type":"string","internalType":"string"}],"outputs":[],"stateMutability":"nonpayable"},{"type":"function","name":"rewardTiers","inputs":[{"name":"","type":"uint256","internalType":"uint256"}],"outputs":[{"name":"minTrustScore","type":"uint256","internalType":"uint256"},{"name":"baseReward","type":"uint256","internalType":"uint256"},{"name":"validationReward","type":"uint256","internalType":"uint256"},{"name":"qtoMultiplier","type":"uint256","internalType":"uint256"},{"name":"tierName","type":"string","internalType":"string"}],"stateMutability":"view"},{"type":"function","name":"totalInteractions","inputs":[],"outputs":[{"name":"","type":"uint256","internalType":"uint256"}],"stateMutability":"view"},{"type":"function","name":"totalRewardsDistributed","inputs":[],"outputs":[{"name":"","type":"uint256","internalType":"uint256"}],"stateMutability":"view"},{"type":"function","name":"userInteractionHistory","inputs":[{"name":"","type":"address","internalType":"address"},{"name":"","type":"uint256","internalType":"uint256"}],"outputs":[{"name":"user","type":"address","internalType":"address"},{"name":"interactionType","type":"string","internalType":"string"},{"name":"timestamp","type":"uint256","internalType":"uint256"},{"name":"value","type":"uint256","internalType":"uint256"},{"name":"metadata","type":"string","internalType":"string"}],"stateMutability":"view"},{"type":"function","name":"userProfiles","inputs":[{"name":"","type":"address","internalType":"address"}],"outputs":[{"name":"username","type":"string","internalType":"string"},{"name":"likes","type":"uint256","internalType":"uint256"},{"name":"comments","type":"uint256","internalType":"uint256"},{"name":"posts","type":"uint256","internalType":"uint256"},{"name":"helpfulResponses","type":"uint256","internalType":"uint256"},{"name":"reportsReceived","type":"uint256","internalType":"uint256"},{"name":"reportsMade","type":"uint256","internalType":"uint256"},{"name":"trustScore","type":"uint256","internalType":"uint256"},{"name":"lastUpdateTime","type":"uint256","internalType":"uint256"},{"name":"isActive","type":"bool","internalType":"bool"},{"name":"rewardBalance","type":"uint256","internalType":"uint256"},{"name":"totalEarned","type":"uint256","internalType":"uint256"},{"name":"validationCount","type":"uint256","internalType":"uint256"},{"name":"successfulValidations","type":"uint256","internalType":"uint256"},{"name":"qtoBalance","type":"uint256","internalType":"uint256"},{"name":"totalQtoEarned","type":"uint256","internalType":"uint256"},{"name":"qoneqtInteractions","type":"uint256","internalType":"uint256"},{"name":"avgSignificanceScore","type":"uint256","internalType":"uint256"}],"stateMutability":"view"},{"type":"function","name":"userSignificanceHistory","inputs":[{"name":"","type":"address","internalType":"address"},{"name":"","type":"uint256","internalType":"uint256"}],"outputs":[{"name":"baseAmount","type":"uint256","internalType":"uint256"},{"name":"multiplier","type":"uint256","internalType":"uint256"},{"name":"finalAmount","type":"uint256","internalType":"uint256"},{"name":"interactionType","type":"string","internalType":"string"},{"name":"significance","type":"string","internalType":"string"},{"name":"timestamp","type":"uint256","internalType":"uint256"}],"stateMutability":"view"},{"type":"function","name":"withdrawRewards","inputs":[{"name":"amount","type":"uint256","internalType":"uint256"}],"outputs":[],"stateMutability":"nonpayable"},{"type":"event","name":"InteractionRecorded","inputs":[{"name":"user","type":"address","indexed":true,"internalType":"address"},{"name":"interactionType","type":"string","indexed":false,"internalType":"string"},{"name":"value","type":"uint256","indexed":false,"internalType":"uint256"},{"name":"timestamp","type":"uint256","indexed":false,"internalType":"uint256"}],"anonymous":false},{"type":"event","name":"QoneqtInteractionProcessed","inputs":[{"name":"user","type":"address","indexed":true,"internalType":"address"},{"name":"interactionType","type":"uint8","indexed":false,"internalType":"enum CommunityInteractionRating.QoneqtInteractionType"},{"name":"significance","type":"uint256","indexed":false,"internalType":"uint256"},{"name":"reward","type":"uint256","indexed":false,"internalType":"uint256"}],"anonymous":false},{"type":"event","name":"QtoRewardEarned","inputs":[{"name":"user","type":"address","indexed":true,"internalType":"address"},{"name":"amount","type":"uint256","indexed":false,"internalType":"uint256"},{"name":"interactionType","type":"string","indexed":false,"internalType":"string"},{"name":"significance","type":"uint256","indexed":false,"internalType":"uint256"}],"anonymous":false},{"type":"event","name":"QtoTransfer","inputs":[{"name":"from","type":"address","indexed":true,"internalType":"address"},{"name":"to","type":"address","indexed":true,"internalType":"address"},{"name":"amount","type":"uint256","indexed":false,"internalType":"uint256"}],"anonymous":false},{"type":"event","name":"RewardClaimed","inputs":[{"name":"user","type":"address","indexed":true,"internalType":"address"},{"name":"amount","type":"uint256","indexed":false,"internalType":"uint256"}],"anonymous":false},{"type":"event","name":"RewardEarned","inputs":[{"name":"user","type":"address","indexed":true,"internalType":"address"},{"name":"amount","type":"uint256","indexed":false,"internalType":"uint256"},{"name":"reason","type":"string","indexed":false,"internalType":"string"}],"anonymous":false},{"type":"event","name":"TrustScoreUpdated","inputs":[{"name":"user","type":"address","indexed":true,"internalType":"address"},{"name":"newScore","type":"uint256","indexed":false,"internalType":"uint256"},{"name":"timestamp","type":"uint256","indexed":false,"internalType":"uint256"}],"anonymous":false},{"type":"event","name":"UserReported","inputs":[{"name":"reporter","type":"address","indexed":true,"internalType":"address"},{"name":"reported","type":"address","indexed":true,"internalType":"address"},{"name":"reason","type":"string","indexed":false,"internalType":"string"}],"anonymous":false},{"type":"event","name":"ValidationPerformed","inputs":[{"name":"validator","type":"address","indexed":true,"internalType":"address"},{"name":"user","type":"address","indexed":true,"internalType":"address"},{"name":"successful","type":"bool","indexed":false,"internalType":"bool"},{"name":"reward","type":"uint256","indexed":false,"internalType":"uint256"}],"anonymous":false}],"bytecode":{"object":"0x60806040523461030c576b033b2e3c9fd0803ce800000080600255305f525f60205260405f2055610071610031610310565b5f8152600160208201526002604082015261032060608201526100546040610343565b600681526542726f6e7a6560d01b60208201526080820152610368565b6100bd61007c610310565b6064815260036020820152600560408201526103e860608201526100a06040610343565b600681526529b4b63b32b960d11b60208201526080820152610368565b6101086100c8610310565b6101f4815260056020820152600a60408201526104b060608201526100ed6040610343565b600481526311dbdb1960e21b60208201526080820152610368565b610157610113610310565b6103e88152600a6020820152601460408201526105dc60608201526101386040610343565b6008815267506c6174696e756d60c01b60208201526080820152610368565b600460205266038d7ea4c680007f17ef568e3e12ab5b9c7254a8d58478811de00f9e6eb34345acd53bf8fd09d3ec556611c37937e080007fabd6e7cb50984ff9c2f3e18a2660c3353dadf4e3291deeb275dae2cd1e44fe0555660aa87bee5380007f91da3fd0782e51c6b3986e9e672fd566868e71f3dbc2d6c2cd6fbb3e361af2a755662386f26fc100007f2e174c10e159ea99b867ce3205125c24a42d128804e4070ed6fcc8cc98166aa05566071afd498d00007f1a1e6821cde7d0159c0d293177871e09677b4e42307c7db3ba94f8648a5a050f819055655af3107a40007f04cde762ef08b6b6c5ded8e8c4c0b3f4e5c9ad7342c88fcc93681b4588b73f05557fc59312466997bb42aaaf719ece141047820e6b34531e1670dc1852a453648f0f55661c6bf5263400007fbeb3bad75134cb432e5707980e3245c52c5998a1125ee30f2f0dbf3925b1e5515566354a6ba7a180007f2645749a946633740611cfc8178319f0958659d6922e4bf7e3a08b44789f53a45560095f526658d15e176280007f4ad5a04d53b5856f318545bb721f67d3f6d0a5a999f25eec7e20eaeb4c47b93355604051614daf90816105058239f35b5f80fd5b6040519060a082016001600160401b0381118382101761032f57604052565b634e487b7160e01b5f52604160045260245ffd5b6040519190601f01601f191682016001600160401b0381118382101761032f57604052565b90600b546801000000000000000081101561032f576001810180600b558110156104f0576004608091600b5f52600560205f20910201845181556020850151600182015560408501516002820155606085015160038201550192015191825160018060401b03811161032f578154600181811c911680156104e6575b60208210146104d257601f811161048d575b506020601f821160011461042f57819293945f92610424575b50508160011b915f199060031b1c1916179055565b015190505f8061040f565b601f19821690835f52805f20915f5b8181106104755750958360019596971061045d575b505050811b019055565b01515f1960f88460031b161c191690555f8080610453565b9192602060018192868b01518155019401920161043e565b825f5260205f20601f830160051c810191602084106104c8575b601f0160051c01905b8181106104bd57506103f6565b5f81556001016104b0565b90915081906104a7565b634e487b7160e01b5f52602260045260245ffd5b90607f16906103e4565b634e487b7160e01b5f52603260045260245ffdfe610120806040526004361015610013575f80fd5b5f3560e01c90816306032d741461416e5750806306817f4614614143578063112c9be2146140fc57806318821400146140e15780631c99c13a14613d905780631d83d84214610f815780632a90531814613d61578063301e175714613c3557806331d7a26214613bfd578063332d56d714613aa15780633576cbe614613971578063372500ab146138d0578063421ae3381461143057806343580d3e146131b857806356ea0714146131515780635b7f415c1461313657806360f6bc121461308957806368dde3f2146108525780636f7ead8f14612c0a578063704f1b94146128c6578063803ae5181461288457806386f6cd3314612364578063902d55a51461233d5780639188c4af146122b55780639342c8f4146121e1578063939c180f1461212e578063987ee15614611ecf578063a1d4938114611e78578063a843651e14611e5b578063b09b34a014611461578063b713443114611430578063b7ef5561146110df578063b87fc5e1146110c2578063c075e3dd14611036578063c66b96c714610fd3578063c90a8dea14610fb8578063cf0c8ae014610f81578063d4dce62914610f66578063e0eb025614610c08578063e4d2620e14610b99578063e7c52d4414610b7c578063ee17254614610b7c578063ef54912614610a11578063f322863e146108a2578063f7e5121414610852578063f91f46a314610782578063fe44655c1461028c5763ff2011141461022d575f80fd5b3461028857602036600319011261028857600435600b54811015610288576102549061454a565b508054610284600183015492600281015490610277600460038301549201614493565b916040519586958661442f565b0390f35b5f80fd5b34610288576040366003190112610288576102a56142cc565b6024356001600160401b038111610288576102c49036906004016143b9565b335f5260056020526102df60ff600960405f20015416614627565b6001600160a01b0382169133831461074457825f52600560205260ff600960405f20015416156106ff576040908151610318838261436e565b60068152651c995c1bdc9d60d21b602082015282519061033782614353565b858252602082019181835284810142815260608201905f82526080830194888652895f526006602052875f208054600160401b81101561061f576103809160018201815561457a565b9490946106ec575184546001600160a01b0319166001600160a01b039190911617845551805160018501916001600160401b03821161061f576103c3835461445b565b601f81116106a7575b50602090601f831160011461063e5760049695949392915f9183610633575b50508160011b915f199060031b1c19161790555b5160028301555160038201550191519182516001600160401b03811161061f57879361042b835461445b565b601f81116105c9575b50602090601f831160011461052957936105049593835f516020614d3a5f395f51905f52946104bd947f7888dedd90a268534aba7d434ce4e27c597cf09ddae624c388f4996fc9b2af3f9b9a985f9261051e575b50508160011b915f199060031b1c19161790555b6104a7600954614687565b60095586519182916060835260608301906142f8565b5f602083015242888301520390a2855f5260056020526005835f20016104e38154614687565b9055335f5260056020526006835f20016104fd8154614687565b905561487e565b516020815280610519339460208301906142f8565b0390a3005b015190508d80610488565b90601f19831691845f52815f20925f5b8181106105ae5750846104bd947f7888dedd90a268534aba7d434ce4e27c597cf09ddae624c388f4996fc9b2af3f9b9a98946105049a98945f516020614d3a5f395f51905f529860019510610596575b505050811b01905561049c565b01515f1960f88460031b161c191690558d8080610589565b8284015185558c985060019094019360209384019301610539565b909192809495505f5260205f20601f840160051c81019160208510610615575b90601f8b9796959493920160051c01905b8181106106075750610434565b5f81558a96506001016105fa565b90915081906105e9565b634e487b7160e01b5f52604160045260245ffd5b015190508d806103eb565b90601f19831691845f52815f20925f5b81811061068f575091600193918560049a999897969410610677575b505050811b0190556103ff565b01515f1960f88460031b161c191690558d808061066a565b9293602060018192878601518155019501930161064e565b835f5260205f20601f840160051c810191602085106106e2575b601f0160051c01905b8181106106d757506103cc565b5f81556001016106ca565b90915081906106c1565b634e487b7160e01b5f525f60045260245ffd5b60405162461bcd60e51b815260206004820152601860248201527f5265706f727465642075736572206e6f742061637469766500000000000000006044820152606490fd5b60405162461bcd60e51b815260206004820152601660248201527521b0b73737ba103932b837b93a103cb7bab939b2b63360511b6044820152606490fd5b34610288575f366003190112610288575f5f905f915f905f600854905b8181106107de575060809490508280156107d5576107bc916146af565b905b604051938452602084015260408301526060820152f35b50505f906107be565b6107e781614593565b60018060a01b0391549060031b1c165f52600560205261081060405f2095600e870154906146a2565b94610820601082015480956146a2565b9361082f575b5060010161079f565b6108456001929597601161084b930154906146a2565b96614687565b9390610826565b346102885760403660031901126102885761086b6142cc565b6108736142e2565b6001600160a01b039182165f908152600160209081526040808320949093168252928352819020549051908152f35b34610288576020366003190112610288576001600160a01b036108c36142cc565b165f52600360205260405f208054906108db826145d7565b916108e9604051938461436e565b8083526020830180925f5260205f205f915b8383106109ae57848660405191829160208301906020845251809152604083019060408160051b85010192915f905b82821061093957505050500390f35b919360019193955060208091603f198982030185528751908151815282820151838201526040820151604082015260a080610998610986606086015160c0606087015260c08601906142f8565b608086015185820360808701526142f8565b930151910152960192019201859493919261092a565b600660206001926040516109c181614338565b855481528486015483820152600286015460408201526109e360038701614493565b60608201526109f460048701614493565b6080820152600586015460a08201528152019201920191906108fb565b34610288576020366003190112610288576001600160a01b03610a326142cc565b165f52600660205260405f20805490610a4a826145d7565b91610a58604051938461436e565b8083526020830180925f5260205f205f915b838310610b1c57848660405191829160208301906020845251809152604083019060408160051b85010192915f905b828210610aa857505050500390f35b91936001919395506020610b0c8192603f198a8203018652885190858060a01b0382511681526080610ae78584015160a08785015260a08401906142f8565b92604081015160408401526060810151606084015201519060808184039101526142f8565b9601920192018594939192610a99565b60056020600192604051610b2f81614353565b848060a01b038654168152610b45858701614493565b838201526002860154604082015260038601546060820152610b6960048701614493565b6080820152815201920192019190610a6a565b34610288575f366003190112610288576020600a54604051908152f35b34610288576020366003190112610288576080610bc5610bb76142cc565b610bbf61476c565b506147d9565b61028460405192839260208452805160208501526020810151604085015260408101516060850152606081015182850152015160a08084015260c08301906142f8565b34610288576020366003190112610288576004356001600160401b03811161028857610c389036906004016143b9565b335f526005602052610c5360ff600960405f20015416614627565b610c5b61474a565b9060405191610c6983614353565b33835260208301928184526040810142815260608201906005825260808301948552335f52600660205260405f208054600160401b81101561061f57610cb49160018201815561457a565b9390936106ec575183546001600160a01b0319166001600160a01b03919091161783559451805190959060018401906001600160401b03811161061f57610cfb825461445b565b601f8111610f21575b506020601f8211600114610ebb57819060049798995f92610eb0575b50508160011b915f199060031b1c19161790555b5160028301555160038201550191519182516001600160401b03811161061f57610d5e825461445b565b601f8111610e6b575b506020601f8211600114610e0a57819293945f92610dff575b50508160011b915f199060031b1c19161790555b610d9f600954614687565b6009555f516020614d3a5f395f51905f52610dc5604051926060845260608401906142f8565b91600560208201524260408201528033930390a2335f526005602052600360405f2001610df28154614687565b9055610dfd3361487e565b005b015190508480610d80565b601f19821690835f52805f20915f5b818110610e5357509583600195969710610e3b575b505050811b019055610d94565b01515f1960f88460031b161c19169055848080610e2e565b9192602060018192868b015181550194019201610e19565b825f5260205f20601f830160051c81019160208410610ea6575b601f0160051c01905b818110610e9b5750610d67565b5f8155600101610e8e565b9091508190610e85565b015190508980610d20565b601f19821698835f52815f20995f5b818110610f09575091600498999a91846001959410610ef1575b505050811b019055610d34565b01515f1960f88460031b161c19169055898080610ee4565b838301518c556001909b019a60209384019301610eca565b825f5260205f20601f830160051c81019160208410610f5c575b601f0160051c01905b818110610f515750610d04565b5f8155600101610f44565b9091508190610f3b565b34610288575f366003190112610288576020604051600a8152f35b34610288576020366003190112610288576001600160a01b03610fa26142cc565b165f525f602052602060405f2054604051908152f35b34610288575f36600319011261028857602060405160058152f35b3461028857606036600319011261028857610fec6142cc565b60243590600a8210156102885761102d6103e89160606110258461101e60209761101860443591614533565b546145ab565b04926147d9565b0151906145ab565b04604051908152f35b34610288575f36600319011261028857600854600954908061106a576060915f905b60405192835260208301526040820152f35b5f915f5b8281106110885750611082826060946146af565b90611058565b926110bb60019161109886614593565b848060a01b0391549060031b1c165f526005602052600760405f200154906146a2565b930161106e565b34610288575f366003190112610288576020600254604051908152f35b34610288576020366003190112610288576004356001600160401b0381116102885761110f9036906004016143b9565b335f52600560205261112a60ff600960405f20015416614627565b611132614725565b906040519161114083614353565b33835260208301928184526040810142815260608201906003825260808301948552335f52600660205260405f208054600160401b81101561061f5761118b9160018201815561457a565b9390936106ec575183546001600160a01b0319166001600160a01b03919091161783559451805190959060018401906001600160401b03811161061f576111d2825461445b565b601f81116113eb575b506020601f821160011461138557819060049798995f9261137a575b50508160011b915f199060031b1c19161790555b5160028301555160038201550191519182516001600160401b03811161061f57611235825461445b565b601f8111611335575b506020601f82116001146112d457819293945f926112c9575b50508160011b915f199060031b1c19161790555b611276600954614687565b6009555f516020614d3a5f395f51905f5261129c604051926060845260608401906142f8565b91600360208201524260408201528033930390a2335f526005602052600260405f2001610df28154614687565b015190508480611257565b601f19821690835f52805f20915f5b81811061131d57509583600195969710611305575b505050811b01905561126b565b01515f1960f88460031b161c191690558480806112f8565b9192602060018192868b0151815501940192016112e3565b825f5260205f20601f830160051c81019160208410611370575b601f0160051c01905b818110611365575061123e565b5f8155600101611358565b909150819061134f565b0151905089806111f7565b601f19821698835f52815f20995f5b8181106113d3575091600498999a918460019594106113bb575b505050811b01905561120b565b01515f1960f88460031b161c191690558980806113ae565b838301518c556001909b019a60209384019301611394565b825f5260205f20601f830160051c81019160208410611426575b601f0160051c01905b81811061141b57506111db565b5f815560010161140e565b9091508190611405565b3461028857602036600319011261028857600435600a81101561028857611458602091614533565b54604051908152f35b34610288576080366003190112610288576004356001600160401b038111610288573660238201121561028857806004013561149c816145d7565b916114aa604051938461436e565b8183526024602084019260051b8201019036821161028857602401915b818310611e3b57602435846001600160401b03821161028857366023830112156102885781600401356114f9816145d7565b92611507604051948561436e565b8184526024602085019260051b8201019036821161028857602401915b818310611e2257505050604435916001600160401b03831161028857366023840112156102885782600401359261155a846145d7565b93611568604051958661436e565b8085526024602086019160051b8301019136831161028857602401905b828210611e12575050506064356001600160401b03811161028857366023820112156102885780600401356115b9816145d7565b916115c7604051938461436e565b8183526024602084019260051b820101903682116102885760248101925b828410611de35750505050335f52600560205261160b60ff600960405f20015416614627565b61161883518351146146cd565b61162583518551146146cd565b61163283518251146146cd565b5f5b8351811015610dfd576001600160a01b0361164f8286614711565b51169061165c8185614711565b5191600a83101561198d576116718288614711565b5161167c8386614711565b50815f52600560205260ff600960405f2001541615611da5576103e88111611d60576116a784614533565b54936103e86116c6816116ba85896145ab565b046060611025876147d9565b04946116d1826149ba565b6116da84614b6e565b604051926116e784614338565b8352602083019185835260408401898152606085019182526080850192835260a0850193428552885f52600360205260405f208054600160401b81101561061f57611737916001820181556145be565b9690966106ec5751865551600186015551600285015551805160038501916001600160401b03821161061f57819061176f845461445b565b601f8111611d10575b50602090601f8311600114611cad575f92611ca2575b50508160011b915f199060031b1c19161790555b51805160048401916001600160401b03821161061f576117c2835461445b565b601f8111611c5d575b50602090601f8311600114611bf6576005949392915f9183611beb575b50508160011b915f199060031b1c19161790555b51910155825f52600560205260405f20600e810161181b8782546146a2565b9055600f810161182c8782546146a2565b90556011601082019161183f8354614687565b80935501908154905f198101918183116119b1578561186461186e94611869936145ab565b6146a2565b6146af565b90555f83815260056020526040812081836119c55750838004600114841517156119b1575f516020614d5a5f395f51905f52604086926103e88704905b60078101918254906103e86118c082846146a2565b11156119a15750506103e882555b600842910155548151908152426020820152a2835f525f60205260405f206118f78782546146a2565b9055837ff33f7257bceae06313d1205eb280d16ec5776edbcd9545a32ee16a5129ef045d611941611927856149ba565b6040519182918b83526060602084015260608301906142f8565b8760408301520390a26040519061198d576001957f55874e97d780de2824de0a371f4babb11c891005922c76dce784c7b4a90e44b593606093835260208301526040820152a201611634565b634e487b7160e01b5f52602160045260245ffd5b6119aa916146a2565b82556118ce565b634e487b7160e01b5f52601160045260245ffd5b5f925060018403611a0157506003840290848204600314851517156119b15760405f516020614d5a5f395f51905f52916103e8889404906118ab565b5f925060028403611a3d57508360011b90848204600214851517156119b15760405f516020614d5a5f395f51905f52916103e8889404906118ab565b5f925060038403611a7957506005840290848204600514851517156119b15760405f516020614d5a5f395f51905f52916103e8889404906118ab565b5f925060048403611ab557508360011b90848204600214851517156119b15760405f516020614d5a5f395f51905f52916103e8889404906118ab565b5f925060058403611aec5750838004600114841517156119b1575f516020614d5a5f395f51905f52604086926103e88704906118ab565b5f925060068403611b2857508360011b90848204600214851517156119b15760405f516020614d5a5f395f51905f52916103e8889404906118ab565b5f925060078403611b6457508360021b90848204600414851517156119b15760405f516020614d5a5f395f51905f52916103e8889404906118ab565b5f9250859060088503611ba35750506006840290848204600614851517156119b15760405f516020614d5a5f395f51905f52916103e8889404906118ab565b5f9350909160098514611bc8575b5f516020614d5a5f395f51905f52916040916118ab565b9150508360031b90848204600814851517156119b15785916103e8900490611bb1565b015190508f806117e8565b90601f19831691845f52815f20925f5b818110611c45575091600193918560059897969410611c2d575b505050811b0190556117fc565b01515f1960f88460031b161c191690558f8080611c20565b92936020600181928786015181550195019301611c06565b835f5260205f20601f840160051c81019160208510611c98575b601f0160051c01905b818110611c8d57506117cb565b5f8155600101611c80565b9091508190611c77565b015190508f8061178e565b5f8581528281209350601f198516905b818110611cf85750908460019594939210611ce0575b505050811b0190556117a2565b01515f1960f88460031b161c191690558f8080611cd3565b92936020600181928786015181550195019301611cbd565b909150835f5260205f20601f840160051c81019160208510611d56575b90601f859493920160051c01905b818110611d485750611778565b5f8155849350600101611d3b565b9091508190611d2d565b60405162461bcd60e51b815260206004820152601b60248201527f5369676e69666963616e6365206d75737420626520302d3130303000000000006044820152606490fd5b60405162461bcd60e51b81526020600482015260166024820152755461726765742075736572206e6f742061637469766560501b6044820152606490fd5b83356001600160401b03811161028857602091611e078392602436918701016143b9565b8152019301926115e5565b8135815260209182019101611585565b8235600a81101561028857815260209283019201611524565b82356001600160a01b0381168103610288578152602092830192016114c7565b34610288575f366003190112610288576020600954604051908152f35b3461028857604036600319011261028857611e916142cc565b611e996142e2565b9060018060a01b03165f52600760205260405f209060018060a01b03165f52602052602060ff60405f2054166040519015158152f35b3461028857602036600319011261028857611ee86142cc565b5f610220604051611ef88161431c565b606081528260208201528260408201528260608201528260808201528260a08201528260c08201528260e08201528261010082015282610120820152826101408201528261016082015282610180820152826101a0820152826101c0820152826101e082015282610200820152015260018060a01b03165f52600560205260405f20601160405191611f898361431c565b611f9281614493565b835260018101546020840152600281015460408401526003810154606084015260048101546080840152600581015460a0840152600681015460c0840152600781015460e0840152600881015461010084015260ff6009820154161515610120840152600a810154610140840152600b810154610160840152600c810154610180840152600d8101546101a0840152600e8101546101c0840152600f8101546101e08401526010810154610200840152015461022082015260405180916020825261022061206e825161024060208601526102608501906142f8565b91602081015160408501526040810151606085015260608101516080850152608081015160a085015260a081015160c085015260c081015160e085015260e081015161010085015261010081015161012085015261012081015115156101408501526101408101516101608501526101608101516101808501526101808101516101a08501526101a08101516101c08501526101c08101516101e08501526101e08101516102008501526102008101518285015201516102408301520390f35b34610288576040366003190112610288576121476142cc565b6001600160a01b03165f90815260036020526040902080546024359081101561028857612173916145be565b5080546001820154916121d76002820154916121c961219460038301614493565b60056121a260048501614493565b9301549460405197889788526020880152604087015260c0606087015260c08601906142f8565b9084820360808601526142f8565b9060a08301520390f35b3461028857602036600319011261028857600435335f52600560205261221060ff600960405f20015416614627565b335f52600560205280600a60405f2001541061227057335f526005602052600a60405f2001612240828254614695565b90556040519081527f106f923f993c2149d49b4255ff723acafa1f2d94393f561d3eda32ae348f724160203392a2005b60405162461bcd60e51b815260206004820152601b60248201527f496e73756666696369656e74207265776172642062616c616e636500000000006044820152606490fd5b34610288576060366003190112610288576122ce6142cc565b604435906001600160401b038211610288576122f1610dfd9236906004016143b9565b90335f52600560205261230d60ff600960405f20015416614627565b6001600160a01b0381165f908152600560205260409020600901546123349060ff16614627565b60243590614c97565b34610288575f3660031901126102885760206b033b2e3c9fd0803ce8000000604051908152f35b346102885760603660031901126102885761237d6142cc565b6123856142e2565b604435908115159182810361028857335f5260056020526123af60ff600960405f20015416614627565b6001600160a01b0384169133830361283f57825f5260056020528160405f20600c81016123dc8154614687565b9055600a91612824575b5061240e9060206124056123f9896147d9565b926040840151906145ab565b910151906146af565b91156127fd5760405161242260408261436e565b600a8152691cdd58d8d95cdcd99d5b60b21b6020820152915b60409283519061244b858361436e565b600a8252693b30b634b230ba34b7b760b11b6020830152845161246d81614353565b8681526020810183815286820142815260608301916002835260808401948552895f526006602052885f208054600160401b81101561061f576124b59160018201815561457a565b9490946106ec575184546001600160a01b0319166001600160a01b039190911617845551805160018501916001600160401b03821161061f576124f8835461445b565b601f81116127b8575b50602090601f831160011461274f5760049695949392915f9183612744575b50508160011b915f199060031b1c19161790555b5160028301555160038201550190518051906001600160401b03821161061f5761255e835461445b565b601f81116126ff575b50602090601f83116001146126605761263e94899a9b94847fa8b5dd0ce45d0ce48a525020ebdaab97adfe7566b798964c89c7e141202dbbb49b955f516020614d3a5f395f51905f52956125f1955f92612655575b50508160011b915f199060031b1c19161790555b6125db600954614687565b60095588519182916060835260608301906142f8565b60026020830152428a8301520390a2612639855161260f878261436e565b60168152752a3930b739b0b1ba34b7b7103b30b634b230ba34b7b760511b60208201528483614c97565b61487e565b825195865260208601526001600160a01b031693a3005b015190508f806125bc565b90601f19831691845f52815f20925f5b8181106126e75750946001855f516020614d3a5f395f51905f52958d9e9f989561263e9a957fa8b5dd0ce45d0ce48a525020ebdaab97adfe7566b798964c89c7e141202dbbb49f996125f198106126cf575b505050811b0190556125d0565b01515f1960f88460031b161c191690558f80806126c2565b92936020600181928786015181550195019301612670565b835f5260205f20601f840160051c8101916020851061273a575b601f0160051c01905b81811061272f5750612567565b5f8155600101612722565b9091508190612719565b015190508f80612520565b90601f19831691845f52815f20925f5b8181106127a0575091600193918560049a999897969410612788575b505050811b019055612534565b01515f1960f88460031b161c191690558f808061277b565b9293602060018192878601518155019501930161275f565b835f5260205f20601f840160051c810191602085106127f3575b601f0160051c01905b8181106127e85750612501565b5f81556001016127db565b90915081906127d2565b60405161280b60408261436e565b600681526519985a5b195960d21b60208201529161243b565b600d9150016128338154614687565b9055600f61240e6123e6565b60405162461bcd60e51b815260206004820152601f60248201527f43616e206f6e6c79207265636f7264206f776e2076616c69646174696f6e73006044820152606490fd5b3461028857602036600319011261028857600435600854811015610288576128ad602091614593565b905460405160039290921b1c6001600160a01b03168152f35b34610288576020366003190112610288576004356001600160401b038111610288576128f69036906004016143b9565b335f52600560205260ff600960405f20015416612bc5576040519061291a8261431c565b81525f60208201525f60408201525f60608201525f60808201525f60a08201525f60c0820152606460e08201524261010082015260016101208201525f6101408201525f6101608201525f6101808201525f6101a08201525f6101c08201525f6101e08201525f6102008201525f610220820152335f52600560205260405f209080518051906001600160401b03821161061f576129b8845461445b565b601f8111612b80575b50602090601f8311600114612b1557918060119492610220945f92612b0a575b50508160011b915f199060031b1c19161784555b6020810151600185015560408101516002850155606081015160038501556080810151600485015560a0810151600585015560c0810151600685015560e08101516007850155610100810151600885015560098401610120820151151560ff80198354169116179055610140810151600a850155610160810151600b850155610180810151600c8501556101a0810151600d8501556101c0810151600e8501556101e0810151600f85015561020081015160108501550151910155600854600160401b81101561061f57806001612acf9201600855614593565b81549060031b9033821b9160018060a01b03901b1916179055604051606481524260208201525f516020614d5a5f395f51905f5260403392a2005b0151905086806129e1565b90845f52805f20915f5b601f1985168110612b68575092601194926001926102209583601f19811610612b50575b505050811b0184556129f5565b01515f1960f88460031b161c19169055868080612b43565b91926020600181928685015181550194019201612b1f565b845f5260205f20601f840160051c81019160208510612bbb575b601f0160051c01905b818110612bb057506129c1565b5f8155600101612ba3565b9091508190612b9a565b60405162461bcd60e51b815260206004820152601760248201527f5573657220616c726561647920726567697374657265640000000000000000006044820152606490fd5b3461028857602036600319011261028857612c236142cc565b335f526005602052612c3e60ff600960405f20015416614627565b6001600160a01b0381169033821461303857335f52600760205260405f20825f5260205260ff60405f205416612ff3576040805192612c7d828561436e565b60078452661a195b1c199d5b60ca1b6020850152815193612c9e838661436e565b601085526f48656c7066756c20726573706f6e736560801b60208601528251612cc681614353565b828152602081018281528482014281526060830191600a835260808401988952855f526006602052865f208054600160401b81101561061f57612d0e9160018201815561457a565b9490946106ec575184546001600160a01b0319166001600160a01b039190911617845551805160018501916001600160401b03821161061f57612d51835461445b565b601f8111612fae575b50602090601f8311600114612f455760049695949392915f9183612f3a575b50508160011b915f199060031b1c19161790555b5160028301555160038201550194519485516001600160401b03811161061f57612db7825461445b565b601f8111612ef5575b506020601f8211600114612e7c57925f516020614d3a5f395f51905f529282612e25938796610dfd9b5f92612e71575b50508160011b915f199060031b1c19161790555b612e0f600954614687565b60095585519182916060835260608301906142f8565b600a602083015242878301520390a2805f5260056020526004825f2001612e4c8154614687565b9055335f526007602052815f20905f526020525f20600160ff1982541617905561487e565b015190508b80612df0565b601f19821697835f52815f20985f5b818110612edd575083610dfd9a8897945f516020614d3a5f395f51905f529794612e259760019510612ec5575b505050811b019055612e04565b01515f1960f88460031b161c191690558b8080612eb8565b838301518b556001909a019960209384019301612e8b565b825f5260205f20601f830160051c81019160208410612f30575b601f0160051c01905b818110612f255750612dc0565b5f8155600101612f18565b9091508190612f0f565b015190508c80612d79565b90601f19831691845f52815f20925f5b818110612f96575091600193918560049a999897969410612f7e575b505050811b019055612d8d565b01515f1960f88460031b161c191690558c8080612f71565b92936020600181928786015181550195019301612f55565b835f5260205f20601f840160051c81019160208510612fe9575b601f0160051c01905b818110612fde5750612d5a565b5f8155600101612fd1565b9091508190612fc8565b60405162461bcd60e51b815260206004820152601760248201527f416c7265616479207261746564207468697320757365720000000000000000006044820152606490fd5b60405162461bcd60e51b815260206004820152602360248201527f43616e6e6f74206d61726b206f776e20726573706f6e73652061732068656c70604482015262199d5b60ea1b6064820152608490fd5b34610288576040366003190112610288576130a26142cc565b6001600160a01b03165f908152600660205260409020805460243590811015610288576130ce9161457a565b5080546001600160a01b03166102846130e960018401614493565b92600281015490613101600460038301549201614493565b9061311e604051968796875260a0602088015260a08701906142f8565b926040860152606085015283820360808501526142f8565b34610288575f36600319011261028857602060405160128152f35b34610288575f3660031901126102885761319961316c61438f565b61317461440e565b6131a76b033b2e3c9fd0803ce8000000916040519485946080865260808601906142f8565b9084820360208601526142f8565b906012604084015260608301520390f35b34610288576080366003190112610288576131d16142cc565b602435600a81101561028857604435906064356001600160401b038111610288576132009036906004016143b9565b50335f52600560205261321c60ff600960405f20015416614627565b6001600160a01b0383165f8181526005602052604090206009015490939060ff1615611da5576103e88311611d60576103e861326c61325a84614533565b549260606110258461101e89886145ab565b0490613277836149ba565b61328085614b6e565b6040519261328d84614338565b8352602083019186835260408401858152606085019182526080850192835260a0850193428552895f52600360205260405f208054600160401b81101561061f576132dd916001820181556145be565b9690966106ec5751865551600186015551600285015551805160038501916001600160401b03821161061f578190613315845461445b565b601f8111613880575b50602090601f831160011461381d575f92613812575b50508160011b915f199060031b1c19161790555b51805160048401916001600160401b03821161061f57613368835461445b565b601f81116137cd575b50602090601f8311600114613766576005949392915f918361375b575b50508160011b915f199060031b1c19161790555b51910155835f52600560205260405f20600e81016133c18382546146a2565b9055600f81016133d28382546146a2565b9055601160108201916133e58354614687565b80935501908154905f198101918183116119b1578661186461340a94611869936145ab565b90555f84815260056020526040812090919082846135355750848004600114851517156119b1575f516020614d5a5f395f51905f52604087926103e88804905b60078101918254906103e861345f82846146a2565b11156135255750506103e882555b600842910155548151908152426020820152a2845f525f60205260405f206134968282546146a2565b9055847ff33f7257bceae06313d1205eb280d16ec5776edbcd9545a32ee16a5129ef045d6134e06134c6866149ba565b6040519182918683526060602084015260608301906142f8565b8860408301520390a26040519161198d577f55874e97d780de2824de0a371f4babb11c891005922c76dce784c7b4a90e44b593606093835260208301526040820152a2005b61352e916146a2565b825561346d565b5f93506001850361357157506003850290858204600314861517156119b15760405f516020614d5a5f395f51905f52916103e88994049061344a565b5f9350600285036135ad57508460011b90858204600214861517156119b15760405f516020614d5a5f395f51905f52916103e88994049061344a565b5f9350600385036135e957506005850290858204600514861517156119b15760405f516020614d5a5f395f51905f52916103e88994049061344a565b5f93506004850361362557508460011b90858204600214861517156119b15760405f516020614d5a5f395f51905f52916103e88994049061344a565b5f93506005850361365c5750848004600114851517156119b1575f516020614d5a5f395f51905f52604087926103e888049061344a565b5f93506006850361369857508460011b90858204600214861517156119b15760405f516020614d5a5f395f51905f52916103e88994049061344a565b5f9350600785036136d457508460021b90858204600414861517156119b15760405f516020614d5a5f395f51905f52916103e88994049061344a565b5f93508690600886036137135750506006850290858204600614861517156119b15760405f516020614d5a5f395f51905f52916103e88994049061344a565b5f9450909160098614613738575b5f516020614d5a5f395f51905f529160409161344a565b9150508460031b90858204600814861517156119b15786916103e8900490613721565b015190508a8061338e565b90601f19831691845f52815f20925f5b8181106137b557509160019391856005989796941061379d575b505050811b0190556133a2565b01515f1960f88460031b161c191690558a8080613790565b92936020600181928786015181550195019301613776565b835f5260205f20601f840160051c81019160208510613808575b601f0160051c01905b8181106137fd5750613371565b5f81556001016137f0565b90915081906137e7565b015190508a80613334565b5f8581528281209350601f198516905b8181106138685750908460019594939210613850575b505050811b019055613348565b01515f1960f88460031b161c191690558a8080613843565b9293602060018192878601518155019501930161382d565b909150835f5260205f20601f840160051c810191602085106138c6575b90601f859493920160051c01905b8181106138b8575061331e565b5f81558493506001016138ab565b909150819061389d565b34610288575f36600319011261028857335f5260056020526138fb60ff600960405f20015416614627565b335f52600c60205260405f2054801561393657335f52600c6020525f6040812055335f526005602052600a60405f20016122408282546146a2565b60405162461bcd60e51b81526020600482015260136024820152724e6f207265776172647320746f20636c61696d60681b6044820152606490fd5b346102885760403660031901126102885761398a6142cc565b60243590335f525f6020528160405f205410613a5c576001600160a01b0316908115613a1757335f525f60205260405f206139c6828254614695565b9055815f525f60205260405f206139de8282546146a2565b90556040519081527f273e2911a2c9713c680b525c2672139da4d0838eeb997d43f274c3e5b31e8a4c60203392a3602060405160018152f35b60405162461bcd60e51b815260206004820152601f60248201527f43616e6e6f74207472616e7366657220746f207a65726f2061646472657373006044820152606490fd5b60405162461bcd60e51b815260206004820152601860248201527f496e73756666696369656e742051544f2062616c616e636500000000000000006044820152606490fd5b34610288576020366003190112610288576001600160a01b03613ac26142cc565b165f52600560205260405f20613ad781614493565b90600181015460a052600281015460e0526003810154610100526004810154916005820154600683015460078401546008850154600986015460ff16600a87015490600b88015492600c89015494600d8a015496600e8b015498600f8c01549a60108d01549c6011015460805260405160c05260c051610240905260c05161024001613b62916142f8565b9c60a05160c0516020015260e05160c051604001526101005160c0516060015260c0516080015260c05160a0015260c05160c0015260c05160e0015260c0516101000152151560c051610120015260c051610140015260c051610160015260c051610180015260c0516101a0015260c0516101c0015260c0516101e0015260c051610200015260805160c051610220015260c051900360c051f35b34610288576020366003190112610288576001600160a01b03613c1e6142cc565b165f52600c602052602060405f2054604051908152f35b3461028857602036600319011261028857613c4e6142cc565b60018060a01b0381165f52600560205260405f2090610284604051613c728161431c565b613c7b84614493565b815260018401546020820152600284015460408201526003840154606082015260048401546080820152600584015460a0820152600684015460c0820152600784015460e0820152600884015461010082015260ff6009850154161515610120820152600a840154610140820152600b840154610160820152600c840154610180820152600d8401546101a0820152600e8401546101c082019081526080613d49600f870154956101e08501968752610220601160108a01549961020088019a8b52015495019485526147d9565b9151945195519251910151916040519586958661442f565b34610288575f36600319011261028857610284613d7c61440e565b6040519182916020835260208301906142f8565b34610288576020366003190112610288576004356001600160401b03811161028857613dc09036906004016143b9565b335f526005602052613ddb60ff600960405f20015416614627565b613de3614665565b9060405191613df183614353565b33835260208301928184526040810142815260608201906001825260808301948552335f52600660205260405f208054600160401b81101561061f57613e3c9160018201815561457a565b9390936106ec575183546001600160a01b0319166001600160a01b03919091161783559451805190959060018401906001600160401b03811161061f57613e83825461445b565b601f811161409c575b506020601f821160011461403657819060049798995f9261402b575b50508160011b915f199060031b1c19161790555b5160028301555160038201550191519182516001600160401b03811161061f57613ee6825461445b565b601f8111613fe6575b506020601f8211600114613f8557819293945f92613f7a575b50508160011b915f199060031b1c19161790555b613f27600954614687565b6009555f516020614d3a5f395f51905f52613f4d604051926060845260608401906142f8565b91600160208201524260408201528033930390a2335f526005602052600160405f2001610df28154614687565b015190508480613f08565b601f19821690835f52805f20915f5b818110613fce57509583600195969710613fb6575b505050811b019055613f1c565b01515f1960f88460031b161c19169055848080613fa9565b9192602060018192868b015181550194019201613f94565b825f5260205f20601f830160051c81019160208410614021575b601f0160051c01905b8181106140165750613eef565b5f8155600101614009565b9091508190614000565b015190508980613ea8565b601f19821698835f52815f20995f5b818110614084575091600498999a9184600195941061406c575b505050811b019055613ebc565b01515f1960f88460031b161c1916905589808061405f565b838301518c556001909b019a60209384019301614045565b825f5260205f20601f830160051c810191602084106140d7575b601f0160051c01905b8181106140cc5750613e8c565b5f81556001016140bf565b90915081906140b6565b34610288575f36600319011261028857610284613d7c61438f565b34610288576040366003190112610288576141156142cc565b335f52600160205260405f209060018060a01b03165f5260205260405f206024359055602060405160018152f35b346102885760203660031901126102885760206141666141616142cc565b6145ee565b604051908152f35b34610288576020366003190112610288576141876142cc565b6001600160a01b0381165f8181526005602052604090209092610284916141ad8261431c565b6141b681614493565b825260018101546020830152600281015460408301526003810154606083015260048101546080830152600581015460a0830152600681015460c0830152600781015460e0830152600881015461010083015260ff6009820154161515610120830152600a810154906101408301918252614284600b820154956101608501968752600c8301549461018081019586526102206011600d860154956101a08401968752600e8101546101c0850152600f8101546101e0850152601081015461020085015201549101526147d9565b91519451955f52600c602052608060405f205493519151920151926040519687968752602087015260408601526060850152608084015260c060a084015260c08301906142f8565b600435906001600160a01b038216820361028857565b602435906001600160a01b038216820361028857565b805180835260209291819084018484015e5f828201840152601f01601f1916010190565b61024081019081106001600160401b0382111761061f57604052565b60c081019081106001600160401b0382111761061f57604052565b60a081019081106001600160401b0382111761061f57604052565b90601f801991011681019081106001600160401b0382111761061f57604052565b6040519061439e60408361436e565b600c82526b28b7b732a8ba102a37b5b2b760a11b6020830152565b81601f82011215610288578035906001600160401b03821161061f57604051926143ed601f8401601f19166020018561436e565b8284526020838301011161028857815f926020809301838601378301015290565b6040519061441d60408361436e565b600382526251544f60e81b6020830152565b919260a093614458969592845260208401526040830152606082015281608082015201906142f8565b90565b90600182811c92168015614489575b602083101461447557565b634e487b7160e01b5f52602260045260245ffd5b91607f169161446a565b9060405191825f8254926144a68461445b565b808452936001811690811561451157506001146144cd575b506144cb9250038361436e565b565b90505f9291925260205f20905f915b8183106144f55750509060206144cb928201015f6144be565b60209193508060019154838589010152019101909184926144dc565b9050602092506144cb94915060ff191682840152151560051b8201015f6144be565b600a81101561198d575f52600460205260405f2090565b600b5481101561456657600b5f52600560205f20910201905f90565b634e487b7160e01b5f52603260045260245ffd5b8054821015614566575f52600560205f20910201905f90565b6008548110156145665760085f5260205f2001905f90565b818102929181159184041417156119b157565b8054821015614566575f52600660205f20910201905f90565b6001600160401b03811161061f5760051b60200190565b6001600160a01b03165f8181526005602052604090206009015460ff1615614622575f526005602052600760405f20015490565b505f90565b1561462e57565b60405162461bcd60e51b815260206004820152600f60248201526e55736572206e6f742061637469766560881b6044820152606490fd5b6040519061467460408361436e565b60048252636c696b6560e01b6020830152565b5f1981146119b15760010190565b919082039182116119b157565b919082018092116119b157565b81156146b9570490565b634e487b7160e01b5f52601260045260245ffd5b156146d457565b60405162461bcd60e51b8152602060048201526015602482015274082e4e4c2f240d8cadccee8d040dad2e6dac2e8c6d605b1b6044820152606490fd5b80518210156145665760209160051b010190565b6040519061473460408361436e565b600782526618dbdb5b595b9d60ca1b6020830152565b6040519061475960408361436e565b60048252631c1bdcdd60e21b6020830152565b6040519061477982614353565b60606080835f81525f60208201525f60408201525f838201520152565b906040516147a381614353565b60806147d4600483958054855260018101546020860152600281015460408601526003810154606086015201614493565b910152565b6147e161476c565b506001600160a01b03165f90815260056020526040902060070154600b541561456657600b5f526148317f0175b7a638427703f0dbe7bb9bbf987a2551717b34e79f33b5b1008d1fa01db9614796565b600b5490915f5b8281106148455750505090565b61484e8161454a565b5054821015614860575b600101614838565b925060016148766148708561454a565b50614796565b939050614858565b60018060a01b0316805f52600560205260405f206001810154808004600114811517156119b15760028201546003810290808204600314901517156119b1576148c6916146a2565b60038201546005810290808204600514901517156119b1576148e7916146a2565b6004820154600a810290808204600a14901517156119b157614908916146a2565b600c8201548060011b90808204600214901517156119b157614929916146a2565b6005820154906014820291808304601414901517156119b157818111156149a0579061495491614695565b60640190816064116119b1575f516020614d5a5f395f51905f52916040916103e88211614996575b8160078201556008429101558151908152426020820152a2565b6103e8915061497c565b505060405f516020614d5a5f395f51905f52915f9061497c565b600a81101561198d578015614b655760018114614b5c5760028114614b385760038114614b2f5760048114614b0a5760058114614ae15760068114614abb5760078114614a925760088114614a6757600914614a3557604051614a1e60408261436e565b60078152663ab735b737bbb760c91b602082015290565b604051614a4360408261436e565b60148152736d61726b6574706c6163655f707572636861736560601b602082015290565b50604051614a7660408261436e565b600c81526b195d995b9d17d85d1d195b9960a21b602082015290565b50604051614aa160408261436e565b600a81526933b937bab82fb537b4b760b11b602082015290565b50604051614aca60408261436e565b60078152666d65737361676560c81b602082015290565b50604051614af060408261436e565b600a81526973746f72795f7669657760b01b602082015290565b50604051614b1960408261436e565b6006815265666f6c6c6f7760d01b602082015290565b5061445861474a565b50604051614b4760408261436e565b6005815264736861726560d81b602082015290565b50614458614725565b50614458614665565b610320811015614c5b57610258811015614c2a57610190811015614bf75760c81115614bc857604051614ba260408261436e565b601681527556657279204c6f772028302e3030302d302e3139392960501b602082015290565b604051614bd660408261436e565b60118152704c6f772028302e3230302d302e3339392960781b602082015290565b50604051614c0660408261436e565b60148152734d656469756d2028302e3430302d302e3539392960601b602082015290565b50604051614c3960408261436e565b6012815271486967682028302e3630302d302e3739392960701b602082015290565b50604051614c6a60408261436e565b601781527f5665727920486967682028302e3830302d312e30303029000000000000000000602082015290565b917f7832b7eebe8de153acecf46b96e9e04c64c883545a6285fcc564d16ae2d734149192600b614ce160018060a01b03831695865f526005602052602061102560405f20956147d9565b91855f52600c60205260405f20614cf98482546146a2565b905501614d078282546146a2565b9055614d1581600a546146a2565b600a55614d3460405192839283526040602084015260408301906142f8565b0390a256fe97429c81e1a08989fd0d3904b842813d7a7500decc9954ab6a89c7ebf13f3a0e15dd57e0cde9af9083c846eb39c9da382e907c0036818e4a163ecd167e5f3276a2646970667358221220ed018908acc7506e0f847a8ea7d7b84a4f40ecf2c8e7cb7bbef3f01d2a8716d764736f6c634300081d0033","linkReferences":{}},"methodIdentifiers":{"SUCCESSFUL_VALIDATION_BONUS()":"c90a8dea","TOKEN_DECIMALS()":"5b7f415c","TOKEN_NAME()":"18821400","TOKEN_SYMBOL()":"2a905318","TOTAL_SUPPLY()":"902d55a5","VALIDATION_BASE_REWARD()":"d4dce629","activeUsers(uint256)":"803ae518","awardCommunityReward(address,uint256,string)":"9188c4af","batchProcessQoneqtInteractions(address[],uint8[],uint256[],string[])":"b09b34a0","claimRewards()":"372500ab","estimateQtoReward(address,uint8,uint256)":"c66b96c7","getCommunityStats()":"c075e3dd","getGlobalQtoStats()":"f91f46a3","getInteractionBaseReward(uint8)":"b7134431","getQtoRewardStats(address)":"301e1757","getQtoTokenInfo()":"56ea0714","getRewardInfo(address)":"06032d74","getTotalRewardsDistributed()":"e7c52d44","getTrustScoreForValidation(address)":"06817f46","getUserInteractionHistory(address)":"ef549126","getUserProfile(address)":"987ee156","getUserSignificanceHistory(address)":"f322863e","getUserTier(address)":"e4d2620e","hasUserRatedUser(address,address)":"a1d49381","pendingRewards(address)":"31d7a262","processQoneqtInteraction(address,uint8,uint256,string)":"43580d3e","qoneqtBaseRewards(uint8)":"421ae338","qtoAllowance(address,address)":"f7e51214","qtoAllowances(address,address)":"68dde3f2","qtoApprove(address,uint256)":"112c9be2","qtoBalanceOf(address)":"cf0c8ae0","qtoBalances(address)":"1d83d842","qtoTotalSupply()":"b87fc5e1","qtoTransfer(address,uint256)":"3576cbe6","recordComment(string)":"b7ef5561","recordHelpfulResponse(address)":"6f7ead8f","recordLike(string)":"1c99c13a","recordPost(string)":"e0eb0256","recordValidation(address,address,bool)":"86f6cd33","registerUser(string)":"704f1b94","reportUser(address,string)":"fe44655c","rewardTiers(uint256)":"ff201114","totalInteractions()":"a843651e","totalRewardsDistributed()":"ee172546","userInteractionHistory(address,uint256)":"60f6bc12","userProfiles(address)":"332d56d7","userSignificanceHistory(address,uint256)":"939c180f","withdrawRewards(uint256)":"9342c8f4"},"id":22}