{"abi":[{"type":"constructor","inputs":[],"stateMutability":"nonpayable"},{"type":"function","name":"activeUsers","inputs":[{"name":"","type":"uint256","internalType":"uint256"}],"outputs":[{"name":"","type":"address","internalType":"address"}],"stateMutability":"view"},{"type":"function","name":"getCommunityStats","inputs":[],"outputs":[{"name":"totalUsers","type":"uint256","internalType":"uint256"},{"name":"totalInteractionsCount","type":"uint256","internalType":"uint256"},{"name":"averageTrustScore","type":"uint256","internalType":"uint256"}],"stateMutability":"view"},{"type":"function","name":"getTopUsersNyTrustScore","inputs":[{"name":"limit","type":"uint256","internalType":"uint256"}],"outputs":[{"name":"topUsers","type":"address[]","internalType":"address[]"},{"name":"scores","type":"uint256[]","internalType":"uint256[]"}],"stateMutability":"view"},{"type":"function","name":"getTrustScoreForValidation","inputs":[{"name":"user","type":"address","internalType":"address"}],"outputs":[{"name":"","type":"uint256","internalType":"uint256"}],"stateMutability":"view"},{"type":"function","name":"getUserInteractionHistory","inputs":[{"name":"user","type":"address","internalType":"address"}],"outputs":[{"name":"","type":"tuple[]","internalType":"struct CommunityInteractionRating.InteractionRecord[]","components":[{"name":"user","type":"address","internalType":"address"},{"name":"interactionType","type":"string","internalType":"string"},{"name":"timestamp","type":"uint256","internalType":"uint256"},{"name":"value","type":"uint256","internalType":"uint256"},{"name":"metadata","type":"string","internalType":"string"}]}],"stateMutability":"view"},{"type":"function","name":"getUserProfile","inputs":[{"name":"user","type":"address","internalType":"address"}],"outputs":[{"name":"","type":"tuple","internalType":"struct CommunityInteractionRating.UserProfile","components":[{"name":"likes","type":"uint256","internalType":"uint256"},{"name":"comments","type":"uint256","internalType":"uint256"},{"name":"posts","type":"uint256","internalType":"uint256"},{"name":"helpfulResponses","type":"uint256","internalType":"uint256"},{"name":"reportsReceived","type":"uint256","internalType":"uint256"},{"name":"reportsMade","type":"uint256","internalType":"uint256"},{"name":"trustScore","type":"uint256","internalType":"uint256"},{"name":"lastUpdateTime","type":"uint256","internalType":"uint256"},{"name":"isActive","type":"bool","internalType":"bool"}]}],"stateMutability":"view"},{"type":"function","name":"hasUserRatedUser","inputs":[{"name":"","type":"address","internalType":"address"},{"name":"","type":"address","internalType":"address"}],"outputs":[{"name":"","type":"bool","internalType":"bool"}],"stateMutability":"view"},{"type":"function","name":"recordComment","inputs":[{"name":"commentText","type":"string","internalType":"string"}],"outputs":[],"stateMutability":"nonpayable"},{"type":"function","name":"recordHelpfulResponse","inputs":[{"name":"helper","type":"address","internalType":"address"}],"outputs":[],"stateMutability":"nonpayable"},{"type":"function","name":"recordLike","inputs":[{"name":"postId","type":"string","internalType":"string"}],"outputs":[],"stateMutability":"nonpayable"},{"type":"function","name":"recordPost","inputs":[{"name":"postTitle","type":"string","internalType":"string"}],"outputs":[],"stateMutability":"nonpayable"},{"type":"function","name":"registerUser","inputs":[],"outputs":[],"stateMutability":"nonpayable"},{"type":"function","name":"reportUser","inputs":[{"name":"reportedUser","type":"address","internalType":"address"},{"name":"reason","type":"string","internalType":"string"}],"outputs":[],"stateMutability":"nonpayable"},{"type":"function","name":"totalInteractions","inputs":[],"outputs":[{"name":"","type":"uint256","internalType":"uint256"}],"stateMutability":"view"},{"type":"function","name":"userInteractionHistory","inputs":[{"name":"","type":"address","internalType":"address"},{"name":"","type":"uint256","internalType":"uint256"}],"outputs":[{"name":"user","type":"address","internalType":"address"},{"name":"interactionType","type":"string","internalType":"string"},{"name":"timestamp","type":"uint256","internalType":"uint256"},{"name":"value","type":"uint256","internalType":"uint256"},{"name":"metadata","type":"string","internalType":"string"}],"stateMutability":"view"},{"type":"function","name":"userProfiles","inputs":[{"name":"","type":"address","internalType":"address"}],"outputs":[{"name":"likes","type":"uint256","internalType":"uint256"},{"name":"comments","type":"uint256","internalType":"uint256"},{"name":"posts","type":"uint256","internalType":"uint256"},{"name":"helpfulResponses","type":"uint256","internalType":"uint256"},{"name":"reportsReceived","type":"uint256","internalType":"uint256"},{"name":"reportsMade","type":"uint256","internalType":"uint256"},{"name":"trustScore","type":"uint256","internalType":"uint256"},{"name":"lastUpdateTime","type":"uint256","internalType":"uint256"},{"name":"isActive","type":"bool","internalType":"bool"}],"stateMutability":"view"},{"type":"event","name":"InteractionRecorded","inputs":[{"name":"user","type":"address","indexed":true,"internalType":"address"},{"name":"interactionType","type":"string","indexed":false,"internalType":"string"},{"name":"value","type":"uint256","indexed":false,"internalType":"uint256"},{"name":"timestamp","type":"uint256","indexed":false,"internalType":"uint256"}],"anonymous":false},{"type":"event","name":"TrustScoreUpdated","inputs":[{"name":"user","type":"address","indexed":true,"internalType":"address"},{"name":"newScore","type":"uint256","indexed":false,"internalType":"uint256"},{"name":"timestamp","type":"uint256","indexed":false,"internalType":"uint256"}],"anonymous":false},{"type":"event","name":"UserReported","inputs":[{"name":"reporter","type":"address","indexed":true,"internalType":"address"},{"name":"reported","type":"address","indexed":true,"internalType":"address"},{"name":"reason","type":"string","indexed":false,"internalType":"string"}],"anonymous":false}],"bytecode":{"object":"0x608060405234801561000f575f80fd5b50612fec8061001d5f395ff3fe608060405234801561000f575f80fd5b50600436106100fe575f3560e01c8063987ee15611610095578063c075e3dd11610064578063c075e3dd146102db578063e0eb0256146102fb578063ef54912614610317578063fe44655c14610347576100fe565b8063987ee15614610241578063a1d4938114610271578063a843651e146102a1578063b7ef5561146102bf576100fe565b80634d3820eb116100d15780634d3820eb146101b757806360f6bc12146101c15780636f7ead8f146101f5578063803ae51814610211576100fe565b806306817f46146101025780631c99c13a14610132578063332d56d71461014e5780633bcd8fe614610186575b5f80fd5b61011c60048036038101906101179190611eb3565b610363565b6040516101299190611ef6565b60405180910390f35b61014c6004803603810190610147919061204b565b610404565b005b61016860048036038101906101639190611eb3565b610530565b60405161017d999897969594939291906120ac565b60405180910390f35b6101a0600480360381019061019b9190612161565b610585565b6040516101ae9291906122fa565b60405180910390f35b6101bf610ae2565b005b6101db60048036038101906101d6919061232f565b610d12565b6040516101ec9594939291906123f6565b60405180910390f35b61020f600480360381019061020a9190611eb3565b610e89565b005b61022b60048036038101906102269190612161565b6111ae565b6040516102389190612455565b60405180910390f35b61025b60048036038101906102569190611eb3565b6111e9565b6040516102689190612532565b60405180910390f35b61028b6004803603810190610286919061254c565b6112a9565b604051610298919061258a565b60405180910390f35b6102a96112d3565b6040516102b69190611ef6565b60405180910390f35b6102d960048036038101906102d4919061204b565b6112d9565b005b6102e3611406565b6040516102f2939291906125a3565b60405180910390f35b6103156004803603810190610310919061204b565b6114e0565b005b610331600480360381019061032c9190611eb3565b61160d565b60405161033e9190612755565b60405180910390f35b610361600480360381019061035c9190612775565b61182e565b005b5f805f8373ffffffffffffffffffffffffffffffffffffffff1673ffffffffffffffffffffffffffffffffffffffff1681526020019081526020015f206008015f9054906101000a900460ff166103bc575f90506103ff565b5f808373ffffffffffffffffffffffffffffffffffffffff1673ffffffffffffffffffffffffffffffffffffffff1681526020019081526020015f206006015490505b919050565b5f803373ffffffffffffffffffffffffffffffffffffffff1673ffffffffffffffffffffffffffffffffffffffff1681526020019081526020015f206008015f9054906101000a900460ff1661048f576040517f08c379a000000000000000000000000000000000000000000000000000000000815260040161048690612819565b60405180910390fd5b6104d1336040518060400160405280600481526020017f6c696b6500000000000000000000000000000000000000000000000000000000815250600184611b0d565b5f803373ffffffffffffffffffffffffffffffffffffffff1673ffffffffffffffffffffffffffffffffffffffff1681526020019081526020015f205f015f81548092919061051f90612864565b919050555061052d33611ca7565b50565b5f602052805f5260405f205f91509050805f015490806001015490806002015490806003015490806004015490806005015490806006015490806007015490806008015f9054906101000a900460ff16905089565b6060805f60038054905090508084111561059d578093505b8367ffffffffffffffff8111156105b7576105b6611f27565b5b6040519080825280602002602001820160405280156105e55781602001602082028036833780820191505090505b5092508367ffffffffffffffff81111561060257610601611f27565b5b6040519080825280602002602001820160405280156106305781602001602082028036833780820191505090505b5091505f8167ffffffffffffffff81111561064e5761064d611f27565b5b60405190808252806020026020018201604052801561067c5781602001602082028036833780820191505090505b5090505f8267ffffffffffffffff81111561069a57610699611f27565b5b6040519080825280602002602001820160405280156106c85781602001602082028036833780820191505090505b5090505f5b8381101561080557600381815481106106e9576106e86128ab565b5b905f5260205f20015f9054906101000a900473ffffffffffffffffffffffffffffffffffffffff16838281518110610724576107236128ab565b5b602002602001019073ffffffffffffffffffffffffffffffffffffffff16908173ffffffffffffffffffffffffffffffffffffffff16815250505f8060038381548110610774576107736128ab565b5b905f5260205f20015f9054906101000a900473ffffffffffffffffffffffffffffffffffffffff1673ffffffffffffffffffffffffffffffffffffffff1673ffffffffffffffffffffffffffffffffffffffff1681526020019081526020015f20600601548282815181106107ec576107eb6128ab565b5b60200260200101818152505080806001019150506106cd565b505f5b60018461081591906128d8565b811015610a1f575f5b6001828661082c91906128d8565b61083691906128d8565b811015610a11578260018261084b919061290b565b8151811061085c5761085b6128ab565b5b6020026020010151838281518110610877576108766128ab565b5b60200260200101511015610a04575f838281518110610899576108986128ab565b5b60200260200101519050836001836108b1919061290b565b815181106108c2576108c16128ab565b5b60200260200101518483815181106108dd576108dc6128ab565b5b60200260200101818152505080846001846108f8919061290b565b81518110610909576109086128ab565b5b6020026020010181815250505f858381518110610929576109286128ab565b5b6020026020010151905085600184610941919061290b565b81518110610952576109516128ab565b5b602002602001015186848151811061096d5761096c6128ab565b5b602002602001019073ffffffffffffffffffffffffffffffffffffffff16908173ffffffffffffffffffffffffffffffffffffffff168152505080866001856109b6919061290b565b815181106109c7576109c66128ab565b5b602002602001019073ffffffffffffffffffffffffffffffffffffffff16908173ffffffffffffffffffffffffffffffffffffffff168152505050505b808060010191505061081e565b508080600101915050610808565b505f5b86811015610ad957828181518110610a3d57610a3c6128ab565b5b6020026020010151868281518110610a5857610a576128ab565b5b602002602001019073ffffffffffffffffffffffffffffffffffffffff16908173ffffffffffffffffffffffffffffffffffffffff1681525050818181518110610aa557610aa46128ab565b5b6020026020010151858281518110610ac057610abf6128ab565b5b6020026020010181815250508080600101915050610a22565b50505050915091565b5f803373ffffffffffffffffffffffffffffffffffffffff1673ffffffffffffffffffffffffffffffffffffffff1681526020019081526020015f206008015f9054906101000a900460ff1615610b6e576040517f08c379a0000000000000000000000000000000000000000000000000000000008152600401610b6590612988565b60405180910390fd5b6040518061012001604052805f81526020015f81526020015f81526020015f81526020015f81526020015f815260200160648152602001428152602001600115158152505f803373ffffffffffffffffffffffffffffffffffffffff1673ffffffffffffffffffffffffffffffffffffffff1681526020019081526020015f205f820151815f01556020820151816001015560408201518160020155606082015181600301556080820151816004015560a0820151816005015560c0820151816006015560e08201518160070155610100820151816008015f6101000a81548160ff021916908315150217905550905050600333908060018154018082558091505060019003905f5260205f20015f9091909190916101000a81548173ffffffffffffffffffffffffffffffffffffffff021916908373ffffffffffffffffffffffffffffffffffffffff1602179055503373ffffffffffffffffffffffffffffffffffffffff167f15dd57e0cde9af9083c846eb39c9da382e907c0036818e4a163ecd167e5f3276606442604051610d089291906129e8565b60405180910390a2565b6001602052815f5260405f208181548110610d2b575f80fd5b905f5260205f2090600502015f9150915050805f015f9054906101000a900473ffffffffffffffffffffffffffffffffffffffff1690806001018054610d7090612a3c565b80601f0160208091040260200160405190810160405280929190818152602001828054610d9c90612a3c565b8015610de75780601f10610dbe57610100808354040283529160200191610de7565b820191905f5260205f20905b815481529060010190602001808311610dca57829003601f168201915b505050505090806002015490806003015490806004018054610e0890612a3c565b80601f0160208091040260200160405190810160405280929190818152602001828054610e3490612a3c565b8015610e7f5780601f10610e5657610100808354040283529160200191610e7f565b820191905f5260205f20905b815481529060010190602001808311610e6257829003601f168201915b5050505050905085565b5f803373ffffffffffffffffffffffffffffffffffffffff1673ffffffffffffffffffffffffffffffffffffffff1681526020019081526020015f206008015f9054906101000a900460ff16610f14576040517f08c379a0000000000000000000000000000000000000000000000000000000008152600401610f0b90612819565b60405180910390fd5b3373ffffffffffffffffffffffffffffffffffffffff168173ffffffffffffffffffffffffffffffffffffffff1603610f82576040517f08c379a0000000000000000000000000000000000000000000000000000000008152600401610f7990612adc565b60405180910390fd5b60025f3373ffffffffffffffffffffffffffffffffffffffff1673ffffffffffffffffffffffffffffffffffffffff1681526020019081526020015f205f8273ffffffffffffffffffffffffffffffffffffffff1673ffffffffffffffffffffffffffffffffffffffff1681526020019081526020015f205f9054906101000a900460ff1615611047576040517f08c379a000000000000000000000000000000000000000000000000000000000815260040161103e90612b44565b60405180910390fd5b6110be816040518060400160405280600781526020017f68656c7066756c00000000000000000000000000000000000000000000000000815250600a6040518060400160405280601081526020017f48656c7066756c20726573706f6e736500000000000000000000000000000000815250611b0d565b5f808273ffffffffffffffffffffffffffffffffffffffff1673ffffffffffffffffffffffffffffffffffffffff1681526020019081526020015f206003015f81548092919061110d90612864565b9190505550600160025f3373ffffffffffffffffffffffffffffffffffffffff1673ffffffffffffffffffffffffffffffffffffffff1681526020019081526020015f205f8373ffffffffffffffffffffffffffffffffffffffff1673ffffffffffffffffffffffffffffffffffffffff1681526020019081526020015f205f6101000a81548160ff0219169083151502179055506111ab81611ca7565b50565b600381815481106111bd575f80fd5b905f5260205f20015f915054906101000a900473ffffffffffffffffffffffffffffffffffffffff1681565b6111f1611e03565b5f808373ffffffffffffffffffffffffffffffffffffffff1673ffffffffffffffffffffffffffffffffffffffff1681526020019081526020015f20604051806101200160405290815f820154815260200160018201548152602001600282015481526020016003820154815260200160048201548152602001600582015481526020016006820154815260200160078201548152602001600882015f9054906101000a900460ff1615151515815250509050919050565b6002602052815f5260405f20602052805f5260405f205f915091509054906101000a900460ff1681565b60045481565b5f803373ffffffffffffffffffffffffffffffffffffffff1673ffffffffffffffffffffffffffffffffffffffff1681526020019081526020015f206008015f9054906101000a900460ff16611364576040517f08c379a000000000000000000000000000000000000000000000000000000000815260040161135b90612819565b60405180910390fd5b6113a6336040518060400160405280600781526020017f636f6d6d656e7400000000000000000000000000000000000000000000000000815250600384611b0d565b5f803373ffffffffffffffffffffffffffffffffffffffff1673ffffffffffffffffffffffffffffffffffffffff1681526020019081526020015f206001015f8154809291906113f590612864565b919050555061140333611ca7565b50565b5f805f600380549050925060045491505f8303611425575f90506114db565b5f805b6003805490508110156114ca575f806003838154811061144b5761144a6128ab565b5b905f5260205f20015f9054906101000a900473ffffffffffffffffffffffffffffffffffffffff1673ffffffffffffffffffffffffffffffffffffffff1673ffffffffffffffffffffffffffffffffffffffff1681526020019081526020015f2060060154826114bb919061290b565b91508080600101915050611428565b5083816114d79190612b8f565b9150505b909192565b5f803373ffffffffffffffffffffffffffffffffffffffff1673ffffffffffffffffffffffffffffffffffffffff1681526020019081526020015f206008015f9054906101000a900460ff1661156b576040517f08c379a000000000000000000000000000000000000000000000000000000000815260040161156290612819565b60405180910390fd5b6115ad336040518060400160405280600481526020017f706f737400000000000000000000000000000000000000000000000000000000815250600584611b0d565b5f803373ffffffffffffffffffffffffffffffffffffffff1673ffffffffffffffffffffffffffffffffffffffff1681526020019081526020015f206002015f8154809291906115fc90612864565b919050555061160a33611ca7565b50565b606060015f8373ffffffffffffffffffffffffffffffffffffffff1673ffffffffffffffffffffffffffffffffffffffff1681526020019081526020015f20805480602002602001604051908101604052809291908181526020015f905b82821015611823578382905f5260205f2090600502016040518060a00160405290815f82015f9054906101000a900473ffffffffffffffffffffffffffffffffffffffff1673ffffffffffffffffffffffffffffffffffffffff1673ffffffffffffffffffffffffffffffffffffffff1681526020016001820180546116f090612a3c565b80601f016020809104026020016040519081016040528092919081815260200182805461171c90612a3c565b80156117675780601f1061173e57610100808354040283529160200191611767565b820191905f5260205f20905b81548152906001019060200180831161174a57829003601f168201915b50505050508152602001600282015481526020016003820154815260200160048201805461179490612a3c565b80601f01602080910402602001604051908101604052809291908181526020018280546117c090612a3c565b801561180b5780601f106117e25761010080835404028352916020019161180b565b820191905f5260205f20905b8154815290600101906020018083116117ee57829003601f168201915b5050505050815250508152602001906001019061166b565b505050509050919050565b5f803373ffffffffffffffffffffffffffffffffffffffff1673ffffffffffffffffffffffffffffffffffffffff1681526020019081526020015f206008015f9054906101000a900460ff166118b9576040517f08c379a00000000000000000000000000000000000000000000000000000000081526004016118b090612819565b60405180910390fd5b3373ffffffffffffffffffffffffffffffffffffffff168273ffffffffffffffffffffffffffffffffffffffff1603611927576040517f08c379a000000000000000000000000000000000000000000000000000000000815260040161191e90612c09565b60405180910390fd5b5f808373ffffffffffffffffffffffffffffffffffffffff1673ffffffffffffffffffffffffffffffffffffffff1681526020019081526020015f206008015f9054906101000a900460ff166119b2576040517f08c379a00000000000000000000000000000000000000000000000000000000081526004016119a990612c71565b60405180910390fd5b6119f3826040518060400160405280600681526020017f7265706f727400000000000000000000000000000000000000000000000000008152505f84611b0d565b5f808373ffffffffffffffffffffffffffffffffffffffff1673ffffffffffffffffffffffffffffffffffffffff1681526020019081526020015f206004015f815480929190611a4290612864565b91905055505f803373ffffffffffffffffffffffffffffffffffffffff1673ffffffffffffffffffffffffffffffffffffffff1681526020019081526020015f206005015f815480929190611a9690612864565b9190505550611aa482611ca7565b8173ffffffffffffffffffffffffffffffffffffffff163373ffffffffffffffffffffffffffffffffffffffff167f7888dedd90a268534aba7d434ce4e27c597cf09ddae624c388f4996fc9b2af3f83604051611b019190612c8f565b60405180910390a35050565b5f6040518060a001604052808673ffffffffffffffffffffffffffffffffffffffff16815260200185815260200142815260200184815260200183815250905060015f8673ffffffffffffffffffffffffffffffffffffffff1673ffffffffffffffffffffffffffffffffffffffff1681526020019081526020015f2081908060018154018082558091505060019003905f5260205f2090600502015f909190919091505f820151815f015f6101000a81548173ffffffffffffffffffffffffffffffffffffffff021916908373ffffffffffffffffffffffffffffffffffffffff1602179055506020820151816001019081611c0a9190612e43565b5060408201518160020155606082015181600301556080820151816004019081611c349190612e43565b50505060045f815480929190611c4990612864565b91905055508473ffffffffffffffffffffffffffffffffffffffff167f97429c81e1a08989fd0d3904b842813d7a7500decc9954ab6a89c7ebf13f3a0e858542604051611c9893929190612f12565b60405180910390a25050505050565b5f805f8373ffffffffffffffffffffffffffffffffffffffff1673ffffffffffffffffffffffffffffffffffffffff1681526020019081526020015f2090505f600a8260030154611cf89190612f4e565b60058360020154611d099190612f4e565b60038460010154611d1a9190612f4e565b6001855f0154611d2a9190612f4e565b611d34919061290b565b611d3e919061290b565b611d48919061290b565b90505f60148360040154611d5c9190612f4e565b90505f81831115611d96578183611d7391906128d8565b6064611d7f919061290b565b90506103e8811115611d91576103e890505b611d9a565b5f90505b8084600601819055504284600701819055508473ffffffffffffffffffffffffffffffffffffffff167f15dd57e0cde9af9083c846eb39c9da382e907c0036818e4a163ecd167e5f32768242604051611df4929190612f8f565b60405180910390a25050505050565b6040518061012001604052805f81526020015f81526020015f81526020015f81526020015f81526020015f81526020015f81526020015f81526020015f151581525090565b5f604051905090565b5f80fd5b5f80fd5b5f73ffffffffffffffffffffffffffffffffffffffff82169050919050565b5f611e8282611e59565b9050919050565b611e9281611e78565b8114611e9c575f80fd5b50565b5f81359050611ead81611e89565b92915050565b5f60208284031215611ec857611ec7611e51565b5b5f611ed584828501611e9f565b91505092915050565b5f819050919050565b611ef081611ede565b82525050565b5f602082019050611f095f830184611ee7565b92915050565b5f80fd5b5f80fd5b5f601f19601f8301169050919050565b7f4e487b71000000000000000000000000000000000000000000000000000000005f52604160045260245ffd5b611f5d82611f17565b810181811067ffffffffffffffff82111715611f7c57611f7b611f27565b5b80604052505050565b5f611f8e611e48565b9050611f9a8282611f54565b919050565b5f67ffffffffffffffff821115611fb957611fb8611f27565b5b611fc282611f17565b9050602081019050919050565b828183375f83830152505050565b5f611fef611fea84611f9f565b611f85565b90508281526020810184848401111561200b5761200a611f13565b5b612016848285611fcf565b509392505050565b5f82601f83011261203257612031611f0f565b5b8135612042848260208601611fdd565b91505092915050565b5f602082840312156120605761205f611e51565b5b5f82013567ffffffffffffffff81111561207d5761207c611e55565b5b6120898482850161201e565b91505092915050565b5f8115159050919050565b6120a681612092565b82525050565b5f610120820190506120c05f83018c611ee7565b6120cd602083018b611ee7565b6120da604083018a611ee7565b6120e76060830189611ee7565b6120f46080830188611ee7565b61210160a0830187611ee7565b61210e60c0830186611ee7565b61211b60e0830185611ee7565b61212961010083018461209d565b9a9950505050505050505050565b61214081611ede565b811461214a575f80fd5b50565b5f8135905061215b81612137565b92915050565b5f6020828403121561217657612175611e51565b5b5f6121838482850161214d565b91505092915050565b5f81519050919050565b5f82825260208201905092915050565b5f819050602082019050919050565b6121be81611e78565b82525050565b5f6121cf83836121b5565b60208301905092915050565b5f602082019050919050565b5f6121f18261218c565b6121fb8185612196565b9350612206836121a6565b805f5b8381101561223657815161221d88826121c4565b9750612228836121db565b925050600181019050612209565b5085935050505092915050565b5f81519050919050565b5f82825260208201905092915050565b5f819050602082019050919050565b61227581611ede565b82525050565b5f612286838361226c565b60208301905092915050565b5f602082019050919050565b5f6122a882612243565b6122b2818561224d565b93506122bd8361225d565b805f5b838110156122ed5781516122d4888261227b565b97506122df83612292565b9250506001810190506122c0565b5085935050505092915050565b5f6040820190508181035f83015261231281856121e7565b90508181036020830152612326818461229e565b90509392505050565b5f806040838503121561234557612344611e51565b5b5f61235285828601611e9f565b92505060206123638582860161214d565b9150509250929050565b61237681611e78565b82525050565b5f81519050919050565b5f82825260208201905092915050565b5f5b838110156123b3578082015181840152602081019050612398565b5f8484015250505050565b5f6123c88261237c565b6123d28185612386565b93506123e2818560208601612396565b6123eb81611f17565b840191505092915050565b5f60a0820190506124095f83018861236d565b818103602083015261241b81876123be565b905061242a6040830186611ee7565b6124376060830185611ee7565b818103608083015261244981846123be565b90509695505050505050565b5f6020820190506124685f83018461236d565b92915050565b61247781612092565b82525050565b61012082015f8201516124925f85018261226c565b5060208201516124a5602085018261226c565b5060408201516124b8604085018261226c565b5060608201516124cb606085018261226c565b5060808201516124de608085018261226c565b5060a08201516124f160a085018261226c565b5060c082015161250460c085018261226c565b5060e082015161251760e085018261226c565b5061010082015161252c61010085018261246e565b50505050565b5f610120820190506125465f83018461247d565b92915050565b5f806040838503121561256257612561611e51565b5b5f61256f85828601611e9f565b925050602061258085828601611e9f565b9150509250929050565b5f60208201905061259d5f83018461209d565b92915050565b5f6060820190506125b65f830186611ee7565b6125c36020830185611ee7565b6125d06040830184611ee7565b949350505050565b5f81519050919050565b5f82825260208201905092915050565b5f819050602082019050919050565b5f82825260208201905092915050565b5f61261b8261237c565b6126258185612601565b9350612635818560208601612396565b61263e81611f17565b840191505092915050565b5f60a083015f83015161265e5f8601826121b5565b50602083015184820360208601526126768282612611565b915050604083015161268b604086018261226c565b50606083015161269e606086018261226c565b50608083015184820360808601526126b68282612611565b9150508091505092915050565b5f6126ce8383612649565b905092915050565b5f602082019050919050565b5f6126ec826125d8565b6126f681856125e2565b935083602082028501612708856125f2565b805f5b85811015612743578484038952815161272485826126c3565b945061272f836126d6565b925060208a0199505060018101905061270b565b50829750879550505050505092915050565b5f6020820190508181035f83015261276d81846126e2565b905092915050565b5f806040838503121561278b5761278a611e51565b5b5f61279885828601611e9f565b925050602083013567ffffffffffffffff8111156127b9576127b8611e55565b5b6127c58582860161201e565b9150509250929050565b7f55736572206e6f742061637469766500000000000000000000000000000000005f82015250565b5f612803600f83612386565b915061280e826127cf565b602082019050919050565b5f6020820190508181035f830152612830816127f7565b9050919050565b7f4e487b71000000000000000000000000000000000000000000000000000000005f52601160045260245ffd5b5f61286e82611ede565b91507fffffffffffffffffffffffffffffffffffffffffffffffffffffffffffffffff82036128a05761289f612837565b5b600182019050919050565b7f4e487b71000000000000000000000000000000000000000000000000000000005f52603260045260245ffd5b5f6128e282611ede565b91506128ed83611ede565b925082820390508181111561290557612904612837565b5b92915050565b5f61291582611ede565b915061292083611ede565b925082820190508082111561293857612937612837565b5b92915050565b7f5573657220616c726561647920726567697374657265640000000000000000005f82015250565b5f612972601783612386565b915061297d8261293e565b602082019050919050565b5f6020820190508181035f83015261299f81612966565b9050919050565b5f819050919050565b5f819050919050565b5f6129d26129cd6129c8846129a6565b6129af565b611ede565b9050919050565b6129e2816129b8565b82525050565b5f6040820190506129fb5f8301856129d9565b612a086020830184611ee7565b9392505050565b7f4e487b71000000000000000000000000000000000000000000000000000000005f52602260045260245ffd5b5f6002820490506001821680612a5357607f821691505b602082108103612a6657612a65612a0f565b5b50919050565b7f43616e6e6f74206d61726b206f776e20726573706f6e73652061732068656c705f8201527f66756c0000000000000000000000000000000000000000000000000000000000602082015250565b5f612ac6602383612386565b9150612ad182612a6c565b604082019050919050565b5f6020820190508181035f830152612af381612aba565b9050919050565b7f416c7265616479207261746564207468697320757365720000000000000000005f82015250565b5f612b2e601783612386565b9150612b3982612afa565b602082019050919050565b5f6020820190508181035f830152612b5b81612b22565b9050919050565b7f4e487b71000000000000000000000000000000000000000000000000000000005f52601260045260245ffd5b5f612b9982611ede565b9150612ba483611ede565b925082612bb457612bb3612b62565b5b828204905092915050565b7f43616e6e6f74207265706f727420796f757273656c66000000000000000000005f82015250565b5f612bf3601683612386565b9150612bfe82612bbf565b602082019050919050565b5f6020820190508181035f830152612c2081612be7565b9050919050565b7f5265706f727465642075736572206e6f742061637469766500000000000000005f82015250565b5f612c5b601883612386565b9150612c6682612c27565b602082019050919050565b5f6020820190508181035f830152612c8881612c4f565b9050919050565b5f6020820190508181035f830152612ca781846123be565b905092915050565b5f819050815f5260205f209050919050565b5f6020601f8301049050919050565b5f82821b905092915050565b5f60088302612d0b7fffffffffffffffffffffffffffffffffffffffffffffffffffffffffffffffff82612cd0565b612d158683612cd0565b95508019841693508086168417925050509392505050565b5f612d47612d42612d3d84611ede565b6129af565b611ede565b9050919050565b5f819050919050565b612d6083612d2d565b612d74612d6c82612d4e565b848454612cdc565b825550505050565b5f90565b612d88612d7c565b612d93818484612d57565b505050565b5b81811015612db657612dab5f82612d80565b600181019050612d99565b5050565b601f821115612dfb57612dcc81612caf565b612dd584612cc1565b81016020851015612de4578190505b612df8612df085612cc1565b830182612d98565b50505b505050565b5f82821c905092915050565b5f612e1b5f1984600802612e00565b1980831691505092915050565b5f612e338383612e0c565b9150826002028217905092915050565b612e4c8261237c565b67ffffffffffffffff811115612e6557612e64611f27565b5b612e6f8254612a3c565b612e7a828285612dba565b5f60209050601f831160018114612eab575f8415612e99578287015190505b612ea38582612e28565b865550612f0a565b601f198416612eb986612caf565b5f5b82811015612ee057848901518255600182019150602085019450602081019050612ebb565b86831015612efd5784890151612ef9601f891682612e0c565b8355505b6001600288020188555050505b505050505050565b5f6060820190508181035f830152612f2a81866123be565b9050612f396020830185611ee7565b612f466040830184611ee7565b949350505050565b5f612f5882611ede565b9150612f6383611ede565b9250828202612f7181611ede565b91508282048414831517612f8857612f87612837565b5b5092915050565b5f604082019050612fa25f830185611ee7565b612faf6020830184611ee7565b939250505056fea26469706673582212200345d3f072c3852f2eb838e3585ad6d6bddae889da804c4f470688eee1dbd3f664736f6c63430008180033","linkReferences":{}},"methodIdentifiers":{"activeUsers(uint256)":"803ae518","getCommunityStats()":"c075e3dd","getTopUsersNyTrustScore(uint256)":"3bcd8fe6","getTrustScoreForValidation(address)":"06817f46","getUserInteractionHistory(address)":"ef549126","getUserProfile(address)":"987ee156","hasUserRatedUser(address,address)":"a1d49381","recordComment(string)":"b7ef5561","recordHelpfulResponse(address)":"6f7ead8f","recordLike(string)":"1c99c13a","recordPost(string)":"e0eb0256","registerUser()":"4d3820eb","reportUser(address,string)":"fe44655c","totalInteractions()":"a843651e","userInteractionHistory(address,uint256)":"60f6bc12","userProfiles(address)":"332d56d7"},"id":19}